:060000000A128A11122809
:10000800FE00030EF2000408F3000A08F40083124D
:1000180003137F08F5000A128A15D4280A128A11D8
:10002800152883175030FD000930FE00C630FF0048
:10003800103084000A168A11F3270A128A118313D2
:10004800C830FD000930FE002230FF00A0308400D7
:100058000A168A11F3270A128A116D30FD0017302B
:10006800FE00B230FF00663084000A168A11F327BA
:100078000A128A11831790308400D0300A168A1128
:10008800B9270A128A118313C8308400D6300A1699
:100098008A11B9270A128A114530840066300A1677
:1000A8008A11B927F601F701F801F901F001830176
:1000B8000A128A115F287F3083120313C400D430D8
:1000C800C300AE30C200C20B6728C30B6728C40B3D
:1000D80067286E280A168A11E0270A128A110A125E
:1000E8008A1578200A128A110A128A11C7270A1259
:1000F8008A110A128A1562200A128A11033083169D
:1001080003138600FC308312031386000D30C200EF
:10011800420883160313D60056080A128A11F027DC
:100128000A128A111A3083120313C4005E30C30006
:100138008630C200C20B9E28C30B9E28C40B9E2883
:10014800000080300A168A11D4270A128A111A3040
:1001580083120313C4005E30C3008630C200C20B92
:10016800B328C30BB328C40BB328000084300A1685
:100178008A11D4270A128A111A3083120313C40071
:100188005E30C3008630C200C20BC828C30BC82823
:10019800C40BC828000083120313E801E80ADF0132
:1001A8000330C2004208E6008C300A168A11D427B0
:1001B8000A128A1102300A168A11D4270A128A11E1
:1001C8000A300A168A11D4270A128A1143300A16ED
:1001D8008A11D4270A128A1120300A168A11D427C4
:1001E8000A128A114D300A168A11D4270A128A1166
:1001F80010300A168A11D4270A128A114D300A16AD
:100208008A11D4270A128A1110300A168A11D427A3
:100218000A128A114D300A168A11D4270A128A1135
:1002280010300A168A11D4270A128A114D300A167C
:100238008A11D4270A128A1110300A168A11D42773
:100248000A128A114C300A168A11D4270A128A1106
:1002580010300A168A11D4270A128A114A300A164F
:100268008A11D4270A128A1110300A168A11D42743
:100278000A128A1148300A168A11D4270A128A11DA
:1002880020300A168A11D4270A128A114F300A160A
:100298008A11D4270A128A1110300A168A11D42713
:1002A8000A128A1154300A168A11D4270A128A119E
:1002B80030300A168A11D4270A128A111030831294
:1002C8000313C200420883160313D70008308312B1
:1002D8000313C200420883160313D8000C3083129C
:1002E8000313C200420883160313D9002430831273
:1002F8000313C200420883160313DA002030831266
:100308000313C200420883160313DB008C300A165D
:100318008A11D4270A128A1103300A168A11D4279F
:100328000A128A1110300A168A11D4270A128A1161
:100338003E300A168A11D4270A128A11831603132B
:1003480057080A168A11D4270A128A1145300A1644
:100358008A11D4270A128A118316031358080A1619
:100368008A11D4270A128A113E300A168A11D42714
:100378000A128A118316031359080A168A11D427F8
:100388000A128A1141300A168A11D4270A128A11D0
:10039800831603135A080A168A11D4270A128A11D7
:1003A8003E300A168A11D4270A128A1183160313BB
:1003B8005B080A168A11D4270A128A1141300A16D4
:1003C8008A11D4270A128A118316031357080A16AA
:1003D8008A11D4270A128A113E300A168A11D427A4
:1003E8000A128A118316031358080A168A11D42789
:1003F8000A128A1141300A168A11D4270A128A1160
:100408008316031359080A168A11D4270A128A1167
:1004180045300A168A11D4270A128A118316031343
:100428005A080A168A11D4270A128A1141300A1664
:100438008A11D4270A128A11831603135B080A1635
:100448008A11D4270A128A1145300A168A11D4272C
:100458000A128A118316031357080A168A11D42719
:100468000A128A1141300A168A11D4270A128A11EF
:100478008316031358080A168A11D4270A128A11F8
:1004880045300A168A11D4270A128A1183160313D3
:1004980059080A168A11D4270A128A113C300A16FA
:1004A8008A11D4270A128A11831603135A080A16C6
:1004B8008A11D4270A128A1130300A168A11D427D1
:1004C8000A128A11831603135B080A168A11D427A5
:1004D8000A128A1141300A168A11D4270A128A117F
:1004E80010300A168A11D4270A128A118C300A167B
:1004F8008A11D4270A128A1104300A168A11D427BD
:100508000A128A1103300A168A11D4270A128A118C
:100518003C300A168A11D4270A128A110C300A169E
:100528008A11D4270A128A1141300A168A11D4274F
:100538000A128A110C300A168A11D4270A128A1153
:1005480045300A168A11D4270A128A1160300A1611
:100558008A11D4270A128A118C300A168A11D427D4
:100568000A128A1105300A168A11D4270A128A112A
:100578000B300A168A11D4270A128A1146300A1635
:100588008A11D4270A128A110C300A168A11D42724
:100598000A128A1143300A168A11D4270A128A11BC
:1005A8000C300A168A11D4270A128A113E300A160C
:1005B8008A11D4270A128A1160300A168A11D427A0
:1005C8000A128A1146300A168A11D4270A128A1189
:1005D8000C300A168A11D4270A128A1143300A16D7
:1005E8008A11D4270A128A110C300A168A11D427C4
:1005F8000A128A113D300A168A11D4270A128A1162
:1006080060300A168A11D4270A128A1146300A164F
:100618008A11D4270A128A110C300A168A11D42793
:100628000A128A1143300A168A11D4270A128A112B
:100638000C300A168A11D4270A128A113C300A167D
:100648008A11D4270A128A1160300A168A11D4270F
:100658000A128A1146300A168A11D4270A128A11F8
:100668000C300A168A11D4270A128A113C300A164D
:100678008A11D4270A128A1114300A168A11D4272B
:100688000A128A118C300A168A11D4270A128A1182
:1006980006300A168A11D4270A128A110B300A1654
:1006A8008A11D4270A128A1137300A168A11D427D8
:1006B8000A128A1116300A168A11D4270A128A11C8
:1006C80037300A168A11D4270A128A1116300A16E8
:1006D8008A11D4270A128A1100300A168A11D427DF
:1006E8000A128A1102300A168A11D4270A128A11AC
:1006F8003A300A168A11D4270A128A1112300A16B9
:100708008A11D4270A128A1130300A168A11D4277E
:100718000A128A1118300A168A11D4270A128A1165
:1007280000300A168A11D4270A128A110A300A16CA
:100738008A11D4270A128A1137300A168A11D42747
:100748000A128A1116300A168A11D4270A128A1137
:1007580037300A168A11D4270A128A1116300A1657
:100768008A11D4270A128A1100300A168A11D4274E
:100778000A128A1102300A168A11D4270A128A111B
:1007880035300A168A11D4270A128A1112300A162D
:100798008A11D4270A128A1136300A168A11D427E8
:1007A8000A128A1118300A168A11D4270A128A11D5
:1007B8000A30831203134D020318861C282C8D302F
:1007C8000A168A11D4270A128A1106300A168A11C3
:1007D800D4270A128A114D3083120313C40019302A
:1007E800C3009A30C200C20BF72BC30BF72BC40B04
:1007F800F72BFE2B8D300A168A11D4270A128A117C
:1008080006300A168A11D4270A128A114D3083122B
:100818000313C4001930C3009A30C200C20B122C53
:10082800C30B122CC40B122C192C8D300A168A11EA
:10083800D4270A128A1105300A168A11D4270A12F7
:100848008A1183120313CD010A304E020318061CC5
:10085800DC2BA50102300A128A117C240A128A11A3
:100868000A128A15EB260A128A11701C402C0A12E9
:100878008A15FC240A128A11F01E502C83120313C5
:10088800A50101300A128A117C240A128A110A125F
:100898008A15EB260A128A11033083120313C20049
:1008A8004208A50000300A128A117C240A128A1113
:1008B8000A128A15EB260A128A11701C682C0A1271
:1008C8008A15FC240A128A11F01E782C831203134D
:1008D800A50101300A128A117C240A128A110A120F
:1008E8008A15EB260A128A1183120313CE01DC2B18
:1008F80083120313AD00D501043055020318C12C2F
:10090800D101053051020318B92C0530A60026087C
:10091800A00055080A128A1513200A128A11B43E3B
:10092800831203135107A7002708840083130008C4
:10093800A8000530A9002908A00055080A128A1540
:1009480013200A128A11A03E831203135107AA002A
:100958002A0884002808831380000130A60026088E
:10096800D10705305102031C892C0130A600260846
:10097800D50704305502031C842C1430A600260821
:10098800E700D501023055020318F12CD1011030CF
:1009980051020318E92C5508A60004300310A60DCF
:1009A800FF3E031DD22CB0302607A70051082707A9
:1009B800A80028088400831780010130A6002608B3
:1009C800D10710305102031CCF2C0130A600260895
:1009D800D50702305502031CCA2C2D08A60026088C
:1009E800DB002508A6002608E0006808A6002608FF
:1009F800DD005F08A6002608E2006608A6002608B3
:100A0800D300D40180300A168A11C1270A128A112C
:100A180001300A128A1591200A128A1183120313CF
:100A2800AF01B0013008803AFF00A7307F02031DF4
:100A38001F2D11302F0203180800F0118312031321
:100A48005D08A6005408903E84002608831780009D
:100A58006208A6005408A03E8400260880000530DD
:100A6800A6002608A00062080A128A1513200A1296
:100A78008A11A03E831203135D07A700270884008C
:100A880083130008103E8400701183170018701536
:100A9800053083120313A6002608A00062080A1274
:100AA8008A1513200A128A11A03E831203135D07C8
:100AB800A7002708840083130008203E84007013D1
:100AC800831700187017053083120313A600260831
:100AD800A00062080A128A1513200A128A11A03E81
:100AE800831203135D07A7002708840083130008F7
:100AF800303E840070128317001870160530831278
:100B08000313A6002608A00062080A128A151320FB
:100B18000A128A11A03E831203135D07A700270853
:100B2800840083130008403E8400F01083170018E7
:100B3800F014831203135408031DAB2DB92DF014C0
:100B4800B92D7015B92D7017B92D7016B92D530818
:100B5800003A0319A32D013A0319A52D033A0319E5
:100B6800A72D013A0319A92DB92D003070190130AC
:100B7800701B013EF018013E701A013EA6002608BF
:100B8800AE0003302E020318E42D5D08A6002608E7
:100B9800DC006208A6002608E1007019D52D033094
:100BA800E12D701BD92DD201E42D701ADE2DD20152
:100BB800D20AE42DF018E42D0230A6002608D2004F
:100BC8005D082D06031DE12E62082506031DE12E92
:100BD800670854020318992E5408A6002608E7004F
:100BE800D501023055020318992ED1011030510257
:100BF80003182B2E5508A60004300310A60DFF3E3F
:100C0800031D012E90302607A70051082707A800CA
:100C18002808840083170008A9005508AA00043092
:100C28000310AA0DFF3E031D142EB0302A07AB0097
:100C380051082B07AC002C088400290880000130DB
:100C4800A6002608D10710305102031CFE2D0130E2
:100C5800A6002608D507F52D0530A6002608A00011
:100C680061080A128A1513200A128A11A03E8312FB
:100C780003135C07A7002708840083130008043EB9
:100C8800832E0530A6002608A00061080A128A15DE
:100C980013200A128A11A03E831203135C07A700CF
:100CA8002708840083130008023E832E0530A6001F
:100CB8002608A00061080A128A1513200A128A1150
:100CC800A03E831203135C07A70027088400831340
:100CD8000008013E832E0530A6002608A000610802
:100CE8000A128A1513200A128A11A03E83120313CE
:100CF8005C07A7002708840083130008083EA800A3
:100D08000530A9002908A00061080A128A151320D5
:100D18000A128A11A03E831203135C07AA002A084C
:100D28008400280883138000A72E5208003A03196C
:100D3800302E013A0319452E033A03195A2E013A67
:100D480003196F2EA72E6808A6002608DD005F0885
:100D5800A6002608E2006608A6002608D300D401EB
:100D6800F015D501023055020318E12ED1011030DB
:100D780051020318D92E5508A60004300310A60DF9
:100D8800FF3E031DC22E90302607A70051082707F3
:100D9800A80028088400831780010130A6002608CF
:100DA800D10710305102031CBF2E0130A6002608BF
:100DB800D50702305502031CBA2E04302E0603193B
:100DC800532F0F3054020318532F9B2F0530A600C2
:100DD8002608A00061080A128A1513200A128A112F
:100DE800A03E831203135C07A7002708840083131F
:100DF8000008043E3D2F0530A6002608A000610823
:100E08000A128A1513200A128A11A03E83120313AC
:100E18005C07A7002708840083130008023E3D2FC3
:100E28000530A6002608A00061080A128A151320BA
:100E38000A128A11A03E831203135C07A700270831
:100E4800840083130008013E3D2F0530A6002608C4
:100E5800A00061080A128A1513200A128A11A03EFE
:100E6800831203135C07A700270884008313000874
:100E7800083EA8000530A9002908A00061080A1248
:100E88008A1513200A128A11A03E831203135C07E5
:100E9800AA002A088400280883138000612F5208BA
:100EA800003A0319EA2E013A0319FF2E033A0319EF
:100EB800142F013A0319292F612F6808A600260864
:100EC800DD005F08A6002608E2006608A6002608DE
:100ED800D300D401F015D5010230550203189B2F19
:100EE800D101103051020318932F5508A600043081
:100EF8000310A60DFF3E031D7C2F90302607A70088
:100F080051082707A80028088400831780010130AA
:100F1800A6002608D10710305102031C792F013092
:100F2800A6002608D50702305502031C742FF019B5
:100F3800C02F7019A32F0130DD020330B92F701BA9
:100F4800A92F0130E202D301BC2F701AB22F013051
:100F5800A6002608DD07D301D30ABC2FF018C02F3E
:100F68000130A6002608E2070230A6002608D300B2
:100F78000130A6002608D4070130AF070318B00ACD
:100F88000030B007162D0230831603139F0083121A
:100F9800031388018901831603138801890101302D
:100FA8000A128A1539200A128A1138300A128A154B
:100FB80039200A128A110C300A128A1539200A12AD
:100FC8008A1106300A128A1539200A128A1102304B
:100FD8000A128A153920080083120313A200A101FE
:100FE8008C11220893008C1DF72F1308A0002008ED
:060FF800A1008C110800AD
:1010000008308A000408840A8207003457346F3499
:1010100072346B3469346E3467342E342E342E348B
:0210200000349A
:1010260083120313A300A201231C1D282008A1007C
:101036002108A2070310A00D0310A30C2308031D0B
:1010460017282208080083120313A2000911891029
:10105600091422088800091509110730A1007D30FE
:10106600A000A00B3428A10B342808008312031318
:10107600A200091189100910220888000915091112
:101086000D30A100FB30A000A00B4728A10B47287C
:101096004C2808000A128A1506220A128A15803080
:1010A6000A168A11C1270A128A15831203134608E3
:1010B600A4004508A3000A128A15D8220800831244
:1010C60003138501FF3083160313850089308312CD
:1010D60003139F000230831603139F0053308312BD
:1010E6000313A000A00B7528080003308316031312
:1010F6008600403094002030831203139400803021
:10110600831603138700033083120313870004300A
:101116008316031381008B168B17080083120313A3
:10112600A400240884000A128A1500200A128A15CF
:10113600003A03190800240884000A128A150020C0
:101146000A128A150A128A1526200A128A150130F1
:1011560083120313A3002308A407942883120313FE
:10116600A401A501201CBD282208A4070318A50A6E
:101176002308A50701300310A20DA30DFF3E031D92
:10118600BE2801300310A10CA00CFF3E031DC5288C
:1011960020082104031DB5282508A1002408A00065
:1011A60008000B1DEF280B116430810001308316F7
:1011B6000313D2070318D30A0030D307831203138D
:1011C6000618E9280130F1007108CE078618EF28C5
:1011D6000130F1007108CD077508FF0074088A0018
:1011E60073088400720E8300FE0E7E0E09008312C1
:1011F6000313A40089300A168A11D4270A128A1505
:101206008312031324080A168A11D4270A128A1590
:101216008312031321080A168A11D4270A128A1583
:101226008312031322080A168A11D4270A128A1572
:101236008312031323080A168A11D42708000C34D4
:1012460007340E340D3406340934053400340534BD
:1012560002340C3406340A340E340A340B3409349E
:101266000134013403340C3407340E340D3406349F
:10127600093405340034053402340C3406340A3497
:101286000E340A340B340934013401340334831226
:101296000313A6008E300A168A11D4270A128A155D
:1012A6008312031326080A168A11D4270A128A15EE
:1012B6000230831203132206031D6C290A168A11B3
:1012C600CA270A128A1583120313A4002408F900F8
:1012D6006D29F9010A168A11CA2783120313A4007D
:1012E6002408F8007908A400A5012408A500A40193
:1012F60078082407A7000030031801302507A80046
:101306002808A3002708A200080083120313A601D9
:10131600A701200821040319C129A501A50AA11BBB
:10132600A02901300310A00DA10DFF3E031D952934
:101336000130A4002408A507922901300310A60D48
:10134600A70DFF3E031DA12921082302031DAD2978
:1013560020082202031CB6292008A2022108031C29
:10136600A303A302261401300310A10CA00CFF3E18
:10137600031DB7290130A502031DA0292708A100D6
:101386002608A0000800003400340034003400347D
:1013960000340034003401340134013401340134A2
:1013A6000134013401340034003400340034013493
:1013B6000134013401340034003400340034013483
:1013C6000134013401340034003401340134003472
:1013D6000034013401340034003401340134003463
:1013E6000034013401340034013400340134003453
:1013F6000134003401340034013400340134003443
:10140600013400340134831203139E01831603133F
:101416009E01831203131F151F190F2A1E08A00011
:10142600A1010310A00DA10D0310A00DA10D200810
:10143600C5002108C6003D2A83124508013EC500A5
:1014460046080318013E003EC60008008312450800
:10145600023EC50046080318013E003EC6000800CD
:1014660083124508033EC50046080318013E003EA8
:10147600C6000800831603131E08403A03191F2AE4
:10148600C03A0319292A403A0319332A4A2A08007E
:1014960083120313CF01CB012208803AFF0081306B
:1014A6007F02031D582A00302102031C7B2A831267
:1014B60003132208A7002108A600CF010130270246
:1014C600003003192602031C7B2A2608003EA600CC
:1014D60027080318013EFF3EA7000130A500250896
:1014E600CF07013027020030031926020318682AA5
:1014F600831203132108A5002508D0002408803A8A
:10150600FF0081307F02031D8A2A00302302031C5C
:10151600AD2A831203132408A9002308A800CB01CF
:1015260001302902003003192802031CAD2A2808BD
:10153600003EA80029080318013EFF3EA90001301D
:10154600A5002508CB07013029020030031928021F
:1015560003189A2A831203132308A5002508CC0032
:1015660091300A168A11D4270A128A158312031398
:101576004F080A168A11D4270A128A1583120313F2
:1015860050080A168A11D4270A128A1583120313E1
:101596004B080A168A11D4270A128A1583120313D6
:1015A6004C080A168A11D42708008312031324084C
:1015B600AE002308AD00A501A601A701A801A90157
:1015C600AA01AB01AC0127302E02103003192D02FF
:1015D600031C0A2B2D08F03EAD002E080318013E11
:1015E600D83EAE000130AB070318AC0A0030AC079A
:1015F600E62A2D08183EAD002E080318013EFC3ED3
:10160600AE000130A9070318AA0A0030AA07033062
:101616002E02E83003192D02031C202BFC2A2D086C
:101626009C3EAD002E080318013EFF3EAE00013081
:10163600A7070318A80A0030A80700302E02643056
:1016460003192D02031C362B122B2D08F63EAD0076
:101656002E080318013EFF3EAE000130A507031811
:10166600A60A0030A60700302E020A3003192D0202
:101676000318282B2B082C040319482B2B08303E63
:101686000A128A1526200A128A15831203132908BC
:101696002A040319552B2908303E0A128A152620DA
:1016A6000A128A1583120313270828040319622BCA
:1016B6002708303E0A128A1526200A128A15831236
:1016C60003132508303E0A128A1526200A128A15A7
:1016D600831203132D08303E0A128A1526200800AD
:1016E60083120313AD00F601F7012D03031DB42B7E
:1016F6006608031D832B0330AA002A08E600852B03
:101706000130E6029630AA002A08A100A201A30130
:10171600A30A00300A128A15FA200A128A157708D7
:10172600803AFF0080307F02031D9B2B56307602E5
:101736000318B42B023083120313AA002A08A2004E
:1017460014300A128A154A210A128A15760883125B
:1017560003132207F60077080318770A2307F70012
:10176600922B831203132D08031DF72B03306606F5
:10177600031DBF2BE601C32B0130AA002A08E6078A
:101786009630AA002A08A100FF30AB002B08A20061
:10179600FF30AC002C08A30000300A128A15FA208C
:1017A6000A128A157708803AFF007F307F02031DF0
:1017B600DE2BAB307602031CF72B023083120313A9
:1017C600AA002A08A20014300A128A154A210A120F
:1017D6008A157608831203132207F6007708031882
:1017E600770A2307F700D52B003083120313A100D5
:1017F600A2000030A300A4000A128A154B220A1286
:101806008A15033083120313AC008A30AB005630BE
:10181600AA00AA0B0C2CAB0B0C2CAC0B0C2C132C0F
:10182600080083120313C701C80106158615831223
:1018360003134808803AFF0083307F02031D252CDE
:10184600E83047020318B42C0A128A15E6250A1254
:101856008A15023083120313B5003508A20013302F
:101866000A128A154A210A128A1583120313470897
:101876002207C70048080318480A2307C800A20120
:10188600A20A0D300A128A154A210A128A158312F3
:10189600031322032304031D1A2CA201A20A1130EA
:1018A6000A128A154A210A128A15F2308312031384
:1018B600220623040319652C7014E930C70003308F
:1018C600C8008611A201A20A11300A128A154A21FD
:1018D6000A128A15831203132208B5003508B900C7
:1018E600FA30390603197B2CF6303906031D1A2CFB
:1018F6000130B5003508DA079B2C8D300A168A119F
:10190600D4270A128A1505300A168A11D4270A1214
:101916008A15A52C8D300A168A11D4270A128A1523
:1019260003300A168A11D4270A128A15F016A52C36
:10193600831203135A08013A0319802C033A031938
:101946008D2CA52C333083120313B700BC30B600A0
:101956001030B500B50BAD2CB60BAD2CB70BAD2CBE
:101966001A2C003083120313A100A2000030A3003A
:10197600A4000A128A154B220A128A15701CD62C4C
:10198600F32C013083120313DF02E62C0130B5007D
:101996003508E807E62C0130B5003508DF07E62CE8
:1019A6000130E802E62C831203136608003A031995
:1019B600C42C013A0319C92C033A0319CE2C013A57
:1019C6000319D32CE62C0330B7008A30B600563004
:1019D600B500B50BEC2CB60BEC2CB70BEC2CF32CA2
:1019E600F01E0800143083120313B5003508B80042
:1019F6000800682D053083120313BD003D08A000C2
:101A06005F080A128A1513200A128A15B43E831239
:101A160003136807BE003E08840083130008043ED3
:101A2600522D0530BD003D08A0005F080A128A1538
:101A360013200A128A15B43E831203136807BE00E8
:101A46003E08840083130008023E522D0530BD0077
:101A56003D08A0005F080A128A1513200A128A158B
:101A6600B43E831203136807BE003E088400831346
:101A76000008013E522D0530BD003D08A0005F085C
:101A86000A128A1513200A128A15B43E831203130A
:101A96006807BE003E08840083130008083EBF00A6
:101AA6000530C0004008A0005F080A128A151320FE
:101AB6000A128A15B43E831203136807C10041084F
:101AC60084003F0883138000782D83120313660871
:101AD600003A0319FD2C013A0319142D033A031990
:101AE600292D013A03193E2D782D00300A128A1548
:101AF60073230A128A1500300A128A1573230A12F2
:101B06008A1583120313C701C801FA30A1000030F9
:101B1600A200FA30A3000030A4000A128A154B2254
:101B26000A128A15831203134808803AFF0081308F
:101B36007F02031DA02DF43047020318B92D023091
:101B460083120313BD003D08A20013300A128A1542
:101B56004A210A128A158312031347082207C7006F
:101B660048080318480A2307C800952D0030831239
:101B76000313A100A2000030A300A4000A128A15D4
:101B86004B220A128A1570101A3083120313BF00F3
:101B96005E30BE008630BD00BD0BCF2DBE0BCF2DF7
:101BA600BF0BCF2D0000831203136008BD003D0854
:101BB600A5005B080A128A117C240A128A150A12E9
:101BC6008A15EB260800FA3083120313B30000309F
:101BD600B4000A128A154D200A128A1583120313BD
:101BE60033089C3EAF0034080318013EFF3EB000A8
:101BF60030084602031D012E2F08450203180E2E3B
:101C06006A0883160313C90083120313690883162F
:101C16000313C800622E831246083402031D152ED4
:101C26004508330203186F2E3309AF003409B0009C
:101C3600AF0A0319B00A45082F07E400460803183F
:101C4600460A3007E5006508A1006408A0000030D8
:101C5600A200A3000A128A15B1200A128A1583125D
:101C660003132008AF002108B00064080A3EA00054
:101C760065080318013E003EA1000310690DA2008D
:101C86006A0DA3000A128A1588210A128A15831280
:101C9600031320082F07B10021080318210A300773
:101CA600B2006908310783160313C80083120313B1
:101CB6006A0803186A0A320783160313C9008312D7
:101CC60003136C0883160313CB00831203136B08EC
:101CD60083160313CA00CF2E831234084602031D4F
:101CE600762E330845020318CF2E4509AF00460964
:101CF600B000AF0A0319B00A33082F07E40034080E
:101D06000318340A3007E5006508A1006408A0003E
:101D16000030A200A3000A128A15B1200A128A1501
:101D2600831203132008AF002108B00064080A3E9E
:101D3600A00065080318013E003EA10003106B0DCC
:101D4600A2006C0DA3000A128A1588210A128A15B0
:101D56008312031320082F07B10021080318210A54
:101D66003007B2006B08310783160313CA008312CB
:101D760003136C0803186C0A320783160313CB008F
:101D8600831203136A0883160313C900831203130D
:101D9600690883160313C800831603134B088312BE
:101DA6000313A200831603134A0883120313A10028
:101DB60083160313490883120313A400831603131F
:101DC600480883120313A3000A128A154B2208003F
:101DD60083120313BC01BC0A3C086702031C0800FB
:101DE6003C08B03E8400831700086802031C222FBB
:101DF600302F00300A128A1573230A128A15EC2F27
:101E060001300A128A1573230A128A15EC2F013043
:101E16000A128A1573230A128A15213083120313B4
:101E2600BB007630BA00BA0B162FBB0B162F00007C
:101E360001300A128A1573230A128A15EC2F8312AF
:101E460003136608003A0319FC2E023A0319032FFE
:101E5600013A03190A2F2F2FEC2F831203133C0884
:101E6600B03E8400680883170002031C612F6F2FA1
:101E760001300A128A1573230A128A15EC2F0030D4
:101E86000A128A1573230A128A15EC2F01300A12D8
:101E96008A1573230A128A15213083120313BB0095
:101EA6007630BA00BA0B552FBB0B552F0000013008
:101EB6000A128A1573230A128A15EC2F831203134A
:101EC6006608003A03193B2F013A0319492F033AD2
:101ED6000319422F6E2FEC2F831203133C08C03ECA
:101EE6008400831700085F02031CA02FAE2F00306A
:101EF6000A128A1573230A128A15EC2F01300A1268
:101F06008A1573230A128A15EC2F01300A128A15D4
:101F160073230A128A15213083120313BB0076300D
:101F2600BA00BA0B942FBB0B942F000001300A1293
:101F36008A1573230A128A15EC2F83120313660877
:101F4600003A0319882F013A03197A2F023A031926
:101F5600812FAD2FEC2F831203133C08C03E840063
:101F66005F0883170002031CDF2FF12F01300A12CE
:101F76008A1573230A128A15EC2F00300A128A1565
:101F860073230A128A15EC2F01300A128A1573235D
:101F96000A128A15213083120313BB007630BA0069
:101FA600BA0BD32FBB0BD32F000001300A128A15B0
:101FB60073230A128A15EC2F831203136608013A5B
:101FC6000319B92F033A0319C72F013A0319C02F72
:101FD600EC2F0A128A1514240A128A15701CF92F7E
:101FE600143083120313BA003A08BC00013083127E
:0A1FF6000313BA003A08BC07EF2EEF
:102F6400033414340134FA340034FA340034640081
:102F74008001840A0406031900340406BA2F83125C
:102F84000313A300A31723080A128A153920080083
:102F9400831203138C1ECA2F1A08A0002008A10054
:102FA4002108080083120313A00083160313981C3E
:102FB400D72F8312031320089900080024308316A6
:102FC4000313980098308312031398001430831667
:102FD400031399000B178B1708007E088A007F08DB
:102FE4008200EF270A168A118000840A04087D06ED
:0C2FF40003190034FF0A0319FE0AF32F32
:02400E003A3F37
:00000001FF
