:060000000A128A11122809
:10000800FE00030EF0000408F1000A08F200831253
:1000180003137F08F3000A128A11B32D0A128A11FA
:10002800152883176030FD000430FE00D330FF0030
:10003800103084000A128A112F260A128A1183139B
:10004800D430FD000530FE00C930FF00C030840008
:100058000A128A112F260A128A115930FD0005301A
:10006800FE008530FF00423084000A128A112F26D4
:100078000A128A11831790308400B0300A128A114C
:1000880054260A128A118313A0308400C0300A1241
:100098008A1154260A128A112030840042300A122A
:1000A8008A115426F701F801F901F60183010A12B1
:1000B8008A11772B83120313E400F70104307702C7
:1000C8000318A328B1010530310203189B28053015
:1000D800DD005D08F40077080A128A1118260A1252
:1000E8008A11C03E831203133107DE005E088400C4
:1000F80083130008DF000530E0006008F40077088B
:100108000A128A1118260A128A11423E8312031310
:100118003107E100610884005F0883138000013023
:10012800DD005D08B10705303102031C6B28013082
:10013800DD005D08F70704307702031C66285808BD
:10014800DD005D08BA003D08DD005D08BE00580806
:10015800DD005D08BB003D08DD005D08BF005608F6
:10016800DD005D08B400B50180300A128A114B2603
:100178000A128A1101300A128A114C250A128A11B0
:1001880083120313E601E7016708803AFF00833012
:100198007F02031DD128E930660203180800761192
:1001A800831203133B08DD003508A03E84005D0878
:1001B800831380003F08DD003508B03E84005D08E9
:1001C80080000530DD005D08F4003F080A128A113E
:1001D80018260A128A11423E831203133B07DE00D7
:1001E8005E08840083130008203E8400F6108317FD
:1001F8000018F614053083120313DD005D08F400BF
:100208003F080A128A1118260A128A11423E8312DE
:1002180003133B07DE005E08840083130008303EAA
:10022800840076128317001876160530831203139C
:10023800DD005D08F4003F080A128A1118260A1228
:100248008A11423E831203133B07DE005E088400D6
:1002580083130008403E8400F61183170018F61532
:10026800053083120313DD005D08F4003F080A120D
:100278008A1118260A128A11423E831203133B0779
:10028800DE005E08840083130008503E8400761068
:10029800831700187614582976146829F6146829E3
:1002A80076166829F6156829831203133408003A6C
:1002B80003195029013A03195229033A03195429F9
:1002C800013A0319562968290030F6180130761AC0
:1002D800013E7618013EF619013EDD005D08E50095
:1002E80003306502031893293B08DD005D08F80018
:1002F8003F08DD005D08F900F618842903309029CD
:10030800761A8829B2019329F6198D29B201B20A01
:100318009329761893290230DD005D08B2003B0866
:100328006406031D912A3F085C06031D912A57089D
:1003380035020318492A3508DD005D08D700F701A2
:10034800023077020318492AB1011030310203182C
:10035800DB297708DD0004300310DD0DFF3E031DA7
:10036800B029A0305D07DE0031085E07DF005F08B6
:10037800840083130008E0007708E10004300310CC
:10038800E10DFF3E031DC32990306107E2003108EB
:100398006207E30063088400600883178000013067
:1003A800DD005D08B10710303102031CAD290130B2
:1003B800DD005D08F707A4290530DD005D08F400BD
:1003C80079080A128A1118260A128A11423E7807F9
:1003D80083120313DE005E08840083130008043EC2
:1003E800332A0530DD005D08F40079080A128A1105
:1003F80018260A128A11423E780783120313DE0078
:100408005E08840083130008023E332A0530DD00AD
:100418005D08F40079080A128A1118260A128A114E
:10042800423E780783120313DE005E0884008313BC
:100438000008013E332A0530DD005D08F400790824
:100448000A128A1118260A128A11423E7807831264
:100458000313DE005E08840083130008083EDF00F3
:100468000530E0006008F40079080A128A1118269D
:100478000A128A11423E780783120313E1006108C9
:1004880084005F0883138000572A3208003A031952
:10049800E029013A0319F529033A03190A2A013A0E
:1004A80003191F2A572A3A08DD005D08BB003E08D9
:1004B800DD005D08BF005608DD005D08B400B50129
:1004C8007615F701023077020318912AB10110302E
:1004D80031020318892A7708DD0004300310DD0D86
:1004E800FF3E031D722AA0305D07DE0031085E075B
:1004F800DF005F088400831380010130DD005D08A0
:10050800B10710303102031C6F2A0130DD005D088D
:10051800F70702307702031C6A2A043065060319BC
:10052800032B0F3035020318032B4B2B0530DD004E
:100538005D08F40079080A128A1118260A128A112D
:10054800423E780783120313DE005E08840083139B
:100558000008043EED2A0530DD005D08F400790846
:100568000A128A1118260A128A11423E7807831243
:100578000313DE005E08840083130008023EED2AA0
:100588000530DD005D08F40079080A128A11182682
:100598000A128A11423E780783120313DE005E08AE
:1005A800840083130008013EED2A0530DD005D0854
:1005B800F40079080A128A1118260A128A11423E92
:1005C800780783120313DE005E0884008313000893
:1005D800083EDF000530E0006008F40079080A12E0
:1005E8008A1118260A128A11423E780783120313C9
:1005F800E100610884005F0883138000112B320832
:10060800003A03199A2A013A0319AF2A033A03193F
:10061800C42A013A0319D92A112B3A08DD005D08CA
:10062800BB003E08DD005D08BF005608DD005D0820
:10063800B400B5017615F7010230770203184B2B89
:10064800B101103031020318432B7708DD00043064
:100658000310DD0DFF3E031D2C2BA0305D07DE00CF
:1006680031085E07DF005F088400831380010130D2
:10067800DD005D08B10710303102031C292B013061
:10068800DD005D08F70702307702031C242B76197A
:10069800702BF618532B0130BB020330692B761AE6
:1006A800592B0130BF02B4016C2BF619622B0130B3
:1006B800DD005D08BB07B401B40A6C2B7618702BFB
:1006C8000130DD005D08BF070230DD005D08B400C1
:1006D8000130DD005D08B5070130E6070318E70AB9
:1006E8000030E707C8280A128A113C260A128A1124
:1006F8000A128A116C250A128A110A128A112325F4
:100708000A128A110A128A11DD250A128A11831621
:1007180003138601831203130610D8010330E8007F
:100728006808BD00D601DC0102300A128A115E2079
:100738000A128A114D3083120313EA001930E900B6
:100748009A30E800E80BA62BE90BA62BEA0BA62BA0
:10075800AD2B01300A128A11F1250A128A11803054
:100768000A128A114B260A128A110C300A128A11AF
:100778004C250A128A11C0300A128A114B260A1215
:100788008A110F300A128A114C250A128A11831213
:100798000313EB016B085702031C032C6B08823E02
:1007A8000A128A114B260A128A11831203136B0844
:1007B800903E840083170008303E0A128A110526ED
:1007C8000A128A11831203136B08C23E0A128A1195
:1007D8004B260A128A11831203136B08A03E840069
:1007E80083170008303E0A128A1105260A128A1158
:1007F800013083120313E8006808EB07CE2B8E3014
:100808000A128A114B260A128A11831203135708F7
:10081800E800E9016808DA006908DB000A128A11B1
:1008280038240A128A118312031306140D30EA00C1
:10083800AF30E900C130E800E80B202CE90B202C90
:10084800EA0B202C00008312031306100D30EA0077
:10085800AF30E900C130E800E80B302CE90B302C50
:10086800EA0B302C0000172C831203135B08E500F9
:100878005A08E400DC01DD01DE01DF01E001E101ED
:10088800E201E30127306502103003196402031CFA
:100898006A2C6408F03EE40065080318013ED83E5F
:1008A800E5000130E2070318E30A0030E307462CAD
:1008B8006408183EE40065080318013EFC3EE500A4
:1008C8000130E0070318E10A0030E1070330650250
:1008D800E83003196402031C802C5C2C64089C3EDD
:1008E800E40065080318013EFF3EE5000130DE071D
:1008F8000318DF0A0030DF0700306502643003198F
:100908006402031C962C722C6408F63EE400650809
:100918000318013EFF3EE5000130DC070318DD0A3D
:100928000030DD07003065020A300319640203183D
:10093800882C620863040319A82C6208303E0A1246
:100948008A1105260A128A118312031360086104AA
:100958000319B52C6008303E0A128A1105260A12BE
:100968008A11831203135E085F040319C22C5E0800
:10097800303E0A128A1105260A128A1183120313BD
:100988005C08303E0A128A1105260A128A1183125F
:1009980003136408303E0A128A1105260800003441
:1009A800013402340334043405340634073408347B
:1009B80009340A340B340C340D340E340F3400343B
:1009C800003400340034003400340034003401347E
:1009D8000134013401340134013401340134003468
:1009E800003400340034013401340134013400345B
:1009F800003400340034013401340134013400344B
:100A0800003401340134003400340134013400343A
:100A1800003401340134003400340134013400342A
:100A2800013400340134003401340034013400341A
:100A3800013400340134003401340034013402300C
:100A4800831603139F0083120313880189018316F9
:100A580003138801890101300A128A11F1250A124B
:100A68008A1138300A128A11F1250A128A110C30BB
:100A78000A128A11F1250A128A1106300A128A11FD
:100A8800F1250A128A1102300A128A11F12508008A
:100A980083120313DB005B0884000A128A119C2569
:100AA8000A128A11003A031908005B0884000A1226
:100AB8008A119C250A128A110A128A1105260A121D
:100AC8008A11013083120313DA005A08DB074F2D0D
:100AD80003308316031386004030940020308312BD
:100AE80003139400803083160313870003308312A6
:100AF8000313870004308316031381008B168B17AA
:100B080008000C3407340E340D3406340934053427
:100B18000034053402340C3406340A340E340A34F2
:100B28000B340934013401340334033414340134EC
:100B380005308A000408840A8207003457346F3469
:100B480072346B3469346E3467342E342E342E3458
:100B5800003458343A34003459343A3400340B1DD4
:100B6800BE2D0B11643081000130AA070318AB0AAF
:100B78000030AB077308FF0072088A007108840010
:100B8800700E8300FE0E7E0E09000C3407340E34FE
:100B98000D340634093405340034053402340C3479
:100BA80006340A340E340A340B340934013401345F
:100BB8000334831203138501FF3083160313850062
:100BC8008930831203139F000230831603139F009A
:100BD8005330F400F40BEE2D080083120313D900F0
:100BE80009118910091059088800091509110D30D3
:100BF800F500FB30F400F40BFF2DF50BFF2D042E50
:100C0800080083120313D90009118910091459081F
:100C18008800091509110730F5007D30F400F40B40
:100C2800132EF50B132E080083120313DA00D901D3
:100C38005A1C222E7408F5007508D9070310F40D04
:100C48000310DA0C5A08031D1C2E590808007E08E8
:100C58008A007F0882002B260A128A118000840AE3
:100C680004087D0603190034FF0A0319FE0A2F2E13
:100C780024308316031398009830831203139800C6
:100C880014308316031399000B178B17080083126F
:100C98000313DA00DA175A080A128A11F125080034
:100CA80064008001840A0406031900340406552EE2
:02400E003A3F37
:00000001FF
