:060000000A128A11122809
:10000800FE00030EF2000408F3000A08F40083124D
:1000180003137F08F5000A128A15DE2F0A128A11C7
:1000280015288317D030FD000730FE002B30FF0065
:10003800903084000A128A151E270A128A11831327
:10004800D430FD000F30FE006530FF00C030840062
:100058000A128A151E270A128A115730FD000F301E
:10006800FE008F30FF00413084000A128A151E27D7
:100078000A128A110A128A11FA270A128A11F90039
:100088008317D0308400F0300A128A15D5260A1258
:100098008A118313A0308400C0300A128A15D5262D
:1000A8000A128A112030840041300A128A15D52696
:1000B800F601F701F801F00183010A128A119A2D5D
:1000C80083120313E400B501043035020318A9288C
:1000D800B001053030020318A1280530DD005D08A5
:1000E800D70035080A128A152B270A128A11C03E32
:1000F800831203133007DE005E08840083130008B0
:10010800DF000530E0006008D70035080A128A15BC
:100118002B270A128A11413E831203133007E1008C
:10012800610884005F08831380000130DD005D08EA
:10013800B00705303002031C71280130DD005D086E
:10014800B50704303502031C6C285608DD005D082D
:10015800BB003D08DD005D08BF007908DD005D08D3
:10016800B300B4017018222930290530DD005D087C
:10017800D7003D080A128A152B270A128A11413E18
:10018800831203135607DE005E08840083130008F9
:10019800043E0C290530DD005D08D7003D080A1231
:1001A8008A152B270A128A11413E83120313560718
:1001B800DE005E08840083130008023E0C29053027
:1001C800DD005D08D7003D080A128A152B270A12A0
:1001D8008A11413E831203135607DE005E0884002D
:1001E80083130008013E0C290530DD005D08D700A7
:1001F8003D080A128A152B270A128A11413E8312DA
:1002080003135607DE005E08840083130008083EC7
:10021800DF000530E0006008D7003D080A128A15A3
:100228002B270A128A11413E831203135607E10055
:10023800610884005F088313800030297908003A38
:100248000319B928013A0319CE28033A0319E328F8
:10025800013A0319F828302980300A128A15DD2658
:100268000A128A1101300A128A15BE270A128A1147
:1002780083120313E601E7016708803AFF00833021
:100288007F02031D4929E930660203180800F011AE
:10029800831203133B08DD003408A03E84005D0888
:1002A800831380003F08DD003408B03E84005D08F9
:1002B80080000530DD005D08D7003F080A128A1566
:1002C8002B270A128A11413E831203133B07DE00D3
:1002D8005E08840083130008903E84007011831721
:1002E80000187015053083120313DD005D08D70070
:1002F8003F080A128A152B270A128A11413E8312D7
:1003080003133B07DE005E08840083130008A03E49
:100318008400F01283170018F016053083120313B7
:10032800DD005D08D7003F080A128A152B270A123C
:100338008A11413E831203133B07DE005E088400E6
:1003480083130008B03E84007012831700187016DB
:10035800053083120313DD005D08D7003F080A1239
:100368008A152B270A128A11413E831203133B0771
:10037800DE005E08840083130008C03E8400F0108D
:1003880083170018F014D029F014E0297015E0291B
:10039800F016E0297016E029831203133308003A97
:1003A8000319C829013A0319CA29033A0319CC29A0
:1003B800013A0319CE29E029003070190130F01AEA
:1003C800013EF018013E701A013EDD005D08E500AF
:1003D8000330650203180B2A3B08DD005D08BA00EC
:1003E8003F08DD005D08BE007019FC290330082AAB
:1003F800F01A002AB1010B2A701A052AB101B10AB4
:100408000B2AF0180B2A0230DD005D08B1003B080A
:100418006406031D092B3F085C06031D092B5508BC
:1004280034020318C12A3408DD005D08D500B5017F
:10043800023035020318C12AB00110303002031807
:10044800532A3508DD0004300310DD0DFF3E031D7F
:10045800282AA0305D07DE0030085E07DF005F084D
:10046800840083130008E0003508E100043003101D
:10047800E10DFF3E031D3B2AD0306107E200300842
:100488006207E30063088400600883178000013076
:10049800DD005D08B00710303002031C252A01304A
:1004A800DD005D08B5071C2A0530DD005D08D700B2
:1004B8003E080A128A152B270A128A11413E831216
:1004C80003133A07DE005E08840083130008043E25
:1004D800AB2A0530DD005D08D7003E080A128A15F0
:1004E8002B270A128A11413E831203133A07DE00B2
:1004F8005E08840083130008023EAB2A0530DD0045
:100508005D08D7003E080A128A152B270A128A119D
:10051800413E831203133A07DE005E08840083130A
:100528000008013EAB2A0530DD005D08D7003E0813
:100538000A128A152B270A128A11413E83120313C5
:100548003A07DE005E08840083130008083EDF00D7
:100558000530E0006008D7003E080A128A152B27EC
:100568000A128A11413E831203133A07E100610817
:1005780084005F0883138000CF2A3108003A0319EA
:10058800582A013A03196D2A033A0319822A013AB3
:100598000319972ACF2A5608DD005D08BB003D08DD
:1005A800DD005D08BF007908DD005D08B300B40117
:1005B800F015B501023035020318092BB0011030CF
:1005C80030020318012B3508DD0004300310DD0D5F
:1005D800FF3E031DEA2AA0305D07DE0030085E07F3
:1005E800DF005F088400831380010130DD005D08AF
:1005F800B00710303002031CE72A0130DD005D0827
:10060800B50702303502031CE22A043065060319D7
:100618007B2B0F30340203187B2BC32B0530DD00F6
:100628005D08D7003E080A128A152B270A128A117C
:10063800413E831203133A07DE005E0884008313E9
:100648000008043E652B0530DD005D08D7003E0834
:100658000A128A152B270A128A11413E83120313A4
:100668003A07DE005E08840083130008023E652B0B
:100678000530DD005D08D7003E080A128A152B27D1
:100688000A128A11413E831203133A07DE005E08FC
:10069800840083130008013E652B0530DD005D08EA
:1006A800D7003E080A128A152B270A128A11413EE2
:1006B800831203133A07DE005E08840083130008E0
:1006C800083EDF000530E0006008D7003E080A1247
:1006D8008A152B270A128A11413E831203133A07FF
:1006E800E100610884005F0883138000892B3108CA
:1006F800003A0319122B013A0319272B033A03195D
:100708003C2B013A0319512B892B5608DD005D0853
:10071800BB003D08DD005D08BF007908DD005D080D
:10072800B300B401F015B501023035020318C32B2C
:10073800B001103030020318BB2B3508DD0004303F
:100748000310DD0DFF3E031DA42BA0305D07DE0066
:1007580030085E07DF005F088400831380010130E2
:10076800DD005D08B00710303002031CA12B0130FA
:10077800DD005D08B50702303502031C9C2BF0191B
:10078800E82B7019CB2B0130BB020330E12BF01A98
:10079800D12B0130BF02B301E42B701ADA2B0130E0
:1007A800DD005D08BB07B301B30AE42BF018E82BA2
:1007B8000130DD005D08BF070230DD005D08B300D1
:1007C8000130DD005D08B4070130E6070318E70AC9
:1007D8000030E707402983120313E701E70A670897
:1007E8005502031C08006708D03E840083170008E0
:1007F8005602031C262C372C00300A128A11F924C1
:100808000A128A11312C01300A128A11F9240A12AB
:100818008A11312C01300A128A11F9240A128A111C
:10082800213083120313E6007630E500E50B1A2C1D
:10083800E60B1A2C000001300A128A11F9240A1258
:100848008A11312C7908003A0319002C023A03194D
:10085800072C013A03190E2C312C0A128A11C326CF
:100868000A128A11F22C831203136708D03E8400FF
:10087800560883170002031C682C792C01300A12D1
:100888008A11F9240A128A11732C00300A128A116B
:10089800F9240A128A11732C01300A128A11F924D8
:1008A8000A128A11213083120313E6007630E5001C
:1008B800E50B5C2CE60B5C2C000001300A128A1157
:1008C800F9240A128A11732C7908003A0319422C68
:1008D800013A0319502C033A0319492C732C0A12B4
:1008E8008A11C3260A128A11F22C8312031367088D
:1008F800E03E8400831700083D02031CAA2CB62C96
:1009080000300A128A11F9240A128A11F22C0130D5
:100918000A128A11F9240A128A11F22C01300A12D9
:100928008A11F9240A128A11213083120313E6006E
:100938007630E500E50B9E2CE60B9E2C000001307E
:100948000A128A11F9240A128A11F22C7908003A3B
:100958000319922C013A0319842C023A03198B2C9F
:10096800F22CF22C831203136708B03E84003D0872
:1009780083130002031CE72CF22C01300A128A119F
:10098800F9240A128A11F22C00300A128A11F92469
:100998000A128A11F22C01300A128A11F9240A1259
:1009A8008A11213083120313E6007630E500E50B47
:1009B800DB2CE60BDB2C000001300A128A11F9242B
:1009C8000A128A11F22C7908013A0319C12C033A48
:1009D8000319CF2C013A0319C82CF22C01308312C9
:1009E8000313E5006508E707F32B83120313E400FC
:1009F800A401A5016403031D492D7908031D092DD0
:100A08000330E1006108F9000B2D0130F90296303E
:100A1800E1006108D800D901DA01DA0A00300A12C7
:100A28008A11D2270A128A11831203132508803AE1
:100A3800FF0080307F02031D232D5A302402031843
:100A48003C2D023083120313E1006108D9001430F1
:100A58000A128A116B270A128A11831203132408B7
:100A68005907A40025080318250A5A07A500182DB8
:100A7800003083120313D800D9000030DA00DB00FD
:100A88000A128A1136260A128A118312031364087D
:100A9800031D080003307906031D542DF901582D54
:100AA8000130E1006108F9079630E1006108D800DB
:100AB800FF30E2006208D900FF30E3006308DA0083
:100AC80000300A128A11D2270A128A1183120313DC
:100AD8002508803AFF007F307F02031D752DA7305F
:100AE8002402031C8E2D023083120313E1006108D7
:100AF800D90014300A128A116B270A128A1183123C
:100B0800031324085907A40025080318250A5A07BF
:100B1800A5006A2D003083120313D800D9000030D5
:100B2800DA00DB000A128A11362608007F308312A9
:100B38000313EA00D430E900AE30E800E80BA22D38
:100B4800E90BA22DEA0BA22DA92D0A128A15FC2663
:100B58000A128A110A128A15A5270A128A110A127C
:100B68008A11A9270A128A110A128A1579270A12E4
:100B78008A11033083160313860083120313860138
:100B88000D30E8006808EB006B080A128A150B277D
:100B98000A128A111A3083120313EA005E30E90040
:100BA8008630E800E80BD62DE90BD62DEA0BD62DBA
:100BB800000080300A128A15F0260A128A111A30AB
:100BC80083120313EA005E30E9008630E800E80B80
:100BD800EB2DE90BEB2DEA0BEB2D000084300A120C
:100BE8008A15F0260A128A111A3083120313EA00B2
:100BF8005E30E9008630E800E80B002EE90B002E95
:100C0800EA0B002E000083120313D601D60ABD0199
:100C18000330E8006808F9000A302D020318061CA2
:100C2800102E0616DC01DC0A02300A128A11642032
:100C38000A128A117F3083120313EA00D430E900C4
:100C4800AE30E800E80B262EE90B262EEA0B262EFE
:100C58002D2E0A128A11EF230A128A118312031306
:100C68000612102E83120313AE01AA015908803A06
:100C7800FF0081307F02031D432E00305802031C01
:100C8800662E831203135908DE005808DD00AE01F2
:100C980001305E02003003195D02031C662E5D08F8
:100CA800003EDD005E080318013EFF3EDE00013015
:100CB800DC005C08AE0701305E02003003195D02FB
:100CC8000318532E831203135808DC005C08AF0086
:100CD8005B08803AFF0081307F02031D752E0030CB
:100CE8005A02031C982E831203135B08E0005A086B
:100CF800DF00AA0101306002003003195F02031C03
:100D0800982E5F08003EDF0060080318013EFF3E92
:100D1800E0000130DC005C08AA0701306002003006
:100D280003195F020318852E831203135A08DC0087
:100D38005C08AB0091300A128A15F0260A128A1153
:100D4800831203132E080A128A15F0260A128A1132
:100D5800831203132F080A128A15F0260A128A1121
:100D6800831203132A080A128A15F0260A128A1116
:100D7800831203132B080A128A15F0260800DC2EAA
:100D8800013083120313BD02EA2E013083120313CC
:100D9800E1006108D607EA2E013083120313E1004F
:100DA8006108BD07EA2E013083120313D602EA2E2A
:100DB8007908003A0319C42E013A0319C92E033AD7
:100DC8000319D02E013A0319D72EEA2E83120313E2
:100DD800A601A701FA30D8000030D900FA30DA00AD
:100DE8000030DB000A128A1136260A128A11831291
:100DF80003132708803AFF0083307F02031D062F64
:100E0800E830260203181F2F023083120313E10073
:100E18006108D90013300A128A116B270A128A1145
:100E28008312031326085907A60027080318270A60
:100E38005A07A700FB2E003083120313D800D900ED
:100E48000030DA00DB000A128A1136260800003466
:100E580000340034003400340034003400340134E9
:100E680001340134013401340134013401340034D3
:100E780000340034003401340134013401340034C6
:100E880000340034003401340134013401340034B6
:100E980000340134013400340034013401340034A6
:100EA8000034013401340034003401340134003496
:100EB8000134003401340034013400340134003486
:100EC8000134003401340034013400340134831215
:100ED8000313DD008E300A128A15F0260A128A11D1
:100EE800831203135D080A128A15F0260A128A1162
:100EF8000230831203135906031D8D2F0A128A1517
:100F0800E6260A128A1183120313DB005B08F80035
:100F18008E2FF8010A128A15E62683120313DB00C6
:100F28005B08B2007808DB00DC015B08DC00DB0151
:100F380032085B07DE000030031801305C07DF0071
:100F48005F08DA005E08D900080002308316031330
:100F58009F008312031388018901831603138801F4
:100F6800890101300A128A1551270A128A1138306C
:100F78000A128A1551270A128A110C300A128A1588
:100F880051270A128A1106300A128A1551270A12A5
:100F98008A1102300A128A15512708008312031396
:100FA800DB0089300A128A15F0260A128A11831288
:100FB80003135B080A128A15F0260A128A11831293
:100FC800031358080A128A15F0260A128A11831286
:100FD800031359080A128A15F0260A128A11831275
:0E0FE80003135A080A128A15F0260800033473
:1010000008308A000408840A8207003457346F3499
:1010100072346B3469346E3467342E342E342E348B
:0210200000349A
:101DAA0064008001840A0406031900340406D62E4E
:101DBA0083120313DA00DA175A080A128A1551270E
:101DCA000800831203138C1EE62E1A08D700570840
:101DDA00D8005808080083120313D7008316031388
:101DEA00981CF32E83120313570899000800243015
:101DFA008316031398009830831203139800143043
:101E0A008316031399000B178B1708008312031309
:101E1A00D900D8018C11590893008C1D122F130870
:101E2A00D7005708D8008C1108007E088A007F085E
:101E3A0082001A270A128A158000840A04087D067D
:101E4A0003190034FF0A0319FE0A1E2F8312031313
:101E5A00DA00D9015A1C352F5708D8005808D90773
:101E6A000310D70D0310DA0C5A08031D2F2F590837
:101E7A00080083120313D90009118910091459089B
:101E8A008800091509110730D8007D30D700D70B13
:101E9A004C2FD80B4C2F080083120313D9000911B9
:101EAA008910091059088800091509110D30D80040
:101EBA00FB30D700D70B5F2FD80B5F2F642F08009A
:101ECA000C3407340E340D34063409340534003426
:101EDA00053402340C3406340A340E340A340B3412
:101EEA000934013401340334831203138501FF30AA
:101EFA008316031385008930831203139F0002306F
:101F0A00831603139F00533083120313D700D70B92
:101F1A008C2F08000C3407340E340D34063409347F
:101F2A0005340034053402340C3406340A340E34D1
:101F3A000A340B34093401340134033414340134BF
:101F4A000330831603138600403094002030831236
:101F5A00031394008030831603138700033083121F
:101F6A000313870004308316031381008B168B1723
:101F7A00080083120313DB005B0884000A128A1527
:101F8A0000200A128A15003A031908005B08840027
:101F9A000A128A1500200A128A150A128A153E2781
:101FAA000A128A15013083120313DA005A08DB0772
:101FBA00C12F0B1DF52F0B11643081000130A807CA
:101FCA000318A90A0030A9070618EF2F0130F100FB
:101FDA007108AD078618F52F0130F1007108AC07BA
:101FEA007508FF0074088A0073088400720E830063
:061FFA00FE0E7E0E090040
:02400E003A3F37
:00000001FF
