:060000000A128A11122809
:10000800FE00030EF2000408F3000A08F40083124D
:1000180003137F08F5000A128A15B62F0A128A11EF
:1000280015288317D030FD000730FE005130FF003F
:10003800903084000A128A15F5260A128A11831351
:10004800D430FD000F30FE003C30FF00C03084008B
:100058000A128A15F5260A128A115730FD000F3048
:10006800FE006630FF00403084000A128A15F5262B
:100078000A128A118317D0308400F0300A128A11CC
:10008800F8270A128A118313A0308400C0300A129C
:100098008A11F8270A128A112030840040300A1287
:1000A8008A11F827F601F701F801F901F001830137
:1000B8000A128A11B72D83120313E400B301043026
:1000C80033020318A428AE0105302E0203189C2819
:1000D8000530DD005D08D70033080A128A150227AB
:1000E8000A128A11C03E831203132E07DE005E082F
:1000F800840083130008DF000530E0006008D700A3
:1001080033080A128A1502270A128A11403E8312FE
:1001180003132E07E100610884005F088313800041
:100128000130DD005D08AE0705302E02031C6C2887
:100138000130DD005D08B30704303302031C672873
:100148005608DD005D08B9003B08DD005D08BD000C
:100158005408DD005D08B100B20170181D292B2973
:100168000530DD005D08D7003B080A128A15022712
:100178000A128A11403E831203135607DE005E08F6
:10018800840083130008043E07290530DD005D085C
:10019800D7003B080A128A1502270A128A11403E24
:1001A800831203135607DE005E08840083130008D9
:1001B800023E07290530DD005D08D7003B080A121A
:1001C8008A1502270A128A11403E83120313560722
:1001D800DE005E08840083130008013E072905300D
:1001E800DD005D08D7003B080A128A1502270A12AB
:1001F8008A11403E831203135607DE005E0884000E
:1002080083130008083EDF000530E0006008D700CF
:100218003B080A128A1502270A128A11403E8312E5
:1002280003135607E100610884005F088313800008
:100238002B295408003A0319B428013A0319C9288C
:10024800033A0319DE28013A0319F3282B298030D1
:100258000A128A15B4260A128A1101300A128A155E
:1002680096270A128A1183120313E601E701670829
:10027800803AFF0083307F02031D4429E93066027B
:1002880003180800F011831203133908DD0032083F
:10029800A03E84005D08831380003D08DD0032081D
:1002A800B03E84005D0880000530DD005D08D700A1
:1002B8003D080A128A1502270A128A11403E831243
:1002C80003133907DE005E08840083130008903E9C
:1002D80084007011831700187015053083120313FA
:1002E800DD005D08D7003D080A128A1502270A12A8
:1002F8008A11403E831203133907DE005E0884002A
:1003080083130008A03E8400F01283170018F0162B
:10031800053083120313DD005D08D7003D080A127B
:100328008A1502270A128A11403E831203133907DD
:10033800DE005E08840083130008B03E840070125B
:10034800831700187016053083120313DD005D084B
:10035800D7003D080A128A1502270A128A11403E60
:10036800831203133907DE005E0884008313000834
:10037800C03E8400F01083170018F014CB29F01445
:10038800DB297015DB29F016DB297016DB298312AF
:1003980003133108003A0319C329013A0319C5297F
:1003A800033A0319C729013A0319C929DB2900307F
:1003B80070190130F01A013EF018013E701A013E22
:1003C800DD005D08E500033065020318062A3908D8
:1003D800DD005D08B8003D08DD005D08BC0070194F
:1003E800F7290330032AF01AFB29AF01062A701AED
:1003F800002AAF01AF0A062AF018062A0230DD00EB
:100408005D08AF0039086406031D042B3D085C062F
:10041800031D042B550832020318BC2A3208DD00DC
:100428005D08D500B301023033020318BC2AAE01BF
:1004380010302E0203184E2A3308DD000430031052
:10044800DD0DFF3E031D232AA0305D07DE002E08C8
:100458005E07DF005F08840083130008E0003308AC
:10046800E10004300310E10DFF3E031D362AD030B1
:100478006107E2002E086207E30063088400600851
:10048800831780000130DD005D08AE0710302E02B2
:10049800031C202A0130DD005D08B307172A053048
:1004A800DD005D08D7003C080A128A1502270A12E7
:1004B8008A11403E831203133807DE005E08840069
:1004C80083130008043EA62A0530DD005D08D70026
:1004D8003C080A128A1502270A128A11403E831222
:1004E80003133807DE005E08840083130008023E09
:1004F800A62A0530DD005D08D7003C080A128A15D7
:1005080002270A128A11403E831203133807DE00BD
:100518005E08840083130008013EA62A0530DD002A
:100528005D08D7003C080A128A1502270A128A11A8
:10053800403E831203133807DE005E0884008313ED
:100548000008083EDF000530E0006008D7003C08DE
:100558000A128A1502270A128A11403E83120313CF
:100568003807E100610884005F0883138000CA2A05
:100578002F08003A0319532A013A0319682A033A43
:1005880003197D2A013A0319922ACA2A5608DD005E
:100598005D08B9003B08DD005D08BD005408DD00BA
:1005A8005D08B100B201F015B3010230330203183F
:1005B800042BAE0110302E020318FC2A3308DD008C
:1005C80004300310DD0DFF3E031DE52AA0305D0752
:1005D800DE002E085E07DF005F08840083138001B9
:1005E8000130DD005D08AE0710302E02031CE22A40
:1005F8000130DD005D08B30702303302031CDD2A39
:10060800043065060319762B0F3032020318762B57
:10061800BE2B0530DD005D08D7003C080A128A159C
:1006280002270A128A11403E831203133807DE009C
:100638005E08840083130008043E602B0530DD004B
:100648005D08D7003C080A128A1502270A128A1187
:10065800403E831203133807DE005E0884008313CC
:100668000008023E602B0530DD005D08D7003C081D
:100678000A128A1502270A128A11403E83120313AE
:100688003807DE005E08840083130008013E602BF3
:100698000530DD005D08D7003C080A128A150227DC
:1006A8000A128A11403E831203133807DE005E08DF
:1006B800840083130008083EDF000530E00060086E
:1006C800D7003C080A128A1502270A128A11403EEE
:1006D800831203133807E100610884005F0883135D
:1006E8008000842B2F08003A03190D2B013A0319B7
:1006F800222B033A0319372B013A03194C2B842B6D
:100708005608DD005D08B9003B08DD005D08BD0046
:100718005408DD005D08B100B201F015B3010230E4
:1007280033020318BE2BAE0110302E020318B62B6D
:100738003308DD0004300310DD0DFF3E031D9F2B41
:10074800A0305D07DE002E085E07DF005F0884002A
:10075800831380010130DD005D08AE0710302E02E2
:10076800031C9C2B0130DD005D08B3070230330207
:10077800031C972BF019E32B7019C62B0130B90213
:100788000330DC2BF01ACC2B0130BD02B101DF2B7A
:10079800701AD52B0130DD005D08B907B101B10A27
:1007A800DF2BF018E32B0130DD005D08BD070230B8
:1007B800DD005D08B1000130DD005D08B2070130E1
:1007C800E6070318E70A0030E7073B2983120313FB
:1007D800E801E80A5508013EE50000300318013039
:1007E800E6006608803AE70080306702031DFE2BAA
:1007F80068086502031C08000D3083120313E70024
:10080800AF30E600C130E500E50B082CE60B082CFC
:10081800E70B082C0000831203136808D03E8400FD
:10082800831700085602031C402C4E2C00300A1275
:100838008A1116250A128A110A2D01300A128A1104
:1008480016250A128A110A2D01300A128A11162554
:100858000A128A11213083120313E6007630E5006C
:10086800E50B342CE60B342C000001300A128A11F7
:1008780016250A128A110A2D831203135408003A06
:1008880003191A2C023A0319212C013A0319282CAE
:100898004D2C0A2D831203136808D03E8400560895
:1008A80083170002031C7F2C8D2C01300A128A1139
:1008B80016250A128A110A2D00300A128A111625E5
:1008C8000A128A110A2D01300A128A1116250A12F3
:1008D8008A11213083120313E6007630E500E50B18
:1008E800732CE60B732C000001300A128A111625AE
:1008F8000A128A110A2D831203135408003A0319A5
:10090800592C013A0319672C033A0319602C8C2CD3
:100918000A2D831203136808E03E84008317000839
:100928003B02031CBE2CCC2C00300A128A1116255F
:100938000A128A110A2D01300A128A1116250A1282
:100948008A110A2D01300A128A1116250A128A11F3
:10095800213083120313E6007630E500E50BB22C54
:10096800E60BB22C000001300A128A1116250A1271
:100978008A110A2D831203135408003A0319A62C6E
:10098800013A0319982C023A03199F2CCB2C0A2DF3
:10099800831203136808B03E84003B0883130002E7
:1009A800031CFD2C0F2D01300A128A1116250A127C
:1009B8008A110A2D00300A128A1116250A128A1184
:1009C8000A2D01300A128A1116250A128A112130BD
:1009D80083120313E6007630E500E50BF12CE60BF5
:1009E800F12C000001300A128A1116250A128A1108
:1009F8000A2D831203135408013A0319D72C033A1A
:100A08000319E52C013A0319DE2C0A2D0A128A1162
:100A1800DE260A128A11013083120313E5006508E5
:100A2800E807EE2B83120313E400F801F9016403CD
:100A3800031D572D5408031D262D0330E1006108BE
:100A4800D400282D0130D4029630E1006108D80086
:100A5800D901DA01DA0A00300A128A15D8270A12EF
:100A68008A117908803AFF0080307F02031D3E2DED
:100A7800563078020318572D023083120313E10011
:100A88006108D90014300A128A1191270A128A11B2
:100A98007808831203135907F80079080318790AAC
:100AA8005A07F900352D831203136408031D9A2D84
:100AB80003305406031D622DD401662D0130E10078
:100AC8006108D4079630E1006108D800FF30E200E1
:100AD8006208D900FF30E3006308DA0000300A1228
:100AE8008A15D8270A128A117908803AFF007F30C0
:100AF8007F02031D812DAB307802031C9A2D023032
:100B080083120313E1006108D90014300A128A1114
:100B180091270A128A117808831203135907F800DB
:100B280079080318790A5A07F900782D00308312DA
:100B38000313D800D9000030DA00DB000A128A114A
:100B480051260A128A11033083120313E3008A30F4
:100B5800E2005630E100E10BAF2DE20BAF2DE30BC5
:100B6800AF2DB62D08007F3083120313EB00D4306D
:100B7800EA00AE30E900E90BBF2DEA0BBF2DEB0B05
:100B8800BF2DC62D0A128A15D3260A128A110A12F7
:100B98008A157D270A128A110A128A11CF270A128A
:100BA8008A110A128A1550270A128A1103308316ED
:100BB800031386008312031386010D30E9006908C8
:100BC800EC006C080A128A15E2260A128A111A30F9
:100BD80083120313EB005E30EA008630E900E90B6C
:100BE800F32DEA0BF32DEB0BF32D000080300A12E6
:100BF8008A15C7260A128A111A3083120313EB00CA
:100C08005E30EA008630E900E90B082EEA0B082E70
:100C1800EB0B082E000084300A128A15C7260A1228
:100C28008A111A3083120313EB005E30EA00863013
:100C3800E900E90B1D2EEA0B1D2EEB0B1D2E000003
:100C480083120313D601D60ABB010330E9006908F1
:100C5800D4000A302B020318061C2D2EDC010230AA
:100C68000A128A115F200A128A111A30831203139A
:100C7800EB005E30EA008630E900E90B412EEA0B12
:100C8800412EEB0B412E00000A128A11EA230A12A8
:100C98008A1183120313AB012D2E83120313AC01A7
:100CA800A8015908803AFF0081307F02031D5E2E9B
:100CB80000305802031C812E831203135908DE00EA
:100CC8005808DD00AC0101305E02003003195D02F6
:100CD800031C812E5D08003EDD005E080318013EFE
:100CE800FF3EDE000130DC005C08AC0701305E022C
:100CF800003003195D0203186E2E8312031358087F
:100D0800DC005C08AD005B08803AFF0081307F02A0
:100D1800031D902E00305A02031CB32E83120313B6
:100D28005B08E0005A08DF00A801013060020030CB
:100D380003195F02031CB32E5F08003EDF00600842
:100D48000318013EFF3EE0000130DC005C08A80704
:100D580001306002003003195F020318A02E8312CD
:100D680003135A08DC005C08A90091300A128A159E
:100D7800C7260A128A11831203132C080A128A152D
:100D8800C7260A128A11831203132D080A128A151C
:100D9800C7260A128A118312031328080A128A1511
:100DA800C7260A128A118312031329080A128A1500
:100DB800C7260800F12E013083120313BB02012F4E
:100DC8000130E1006108D607012F0130E100610818
:100DD800BB07012F0130D602012F831203135408D9
:100DE800003A0319DF2E013A0319E42E033A0319D6
:100DF800E92E013A0319EE2E012FA401A501FA30BC
:100E0800D8000030D900FA30DA000030DB000A12CE
:100E18008A1151260A128A11831203132508803A6F
:100E2800FF0083307F02031D1B2FE83024020318C4
:100E3800342F023083120313E1006108D900133004
:100E48000A128A1191270A128A118312031324089D
:100E58005907A40025080318250A5A07A500102FCA
:100E6800003083120313D800D9000030DA00DB0009
:100E78000A128A1151260A128A11033083120313A7
:100E8800E3008A30E2005630E100E10B492FE20B23
:100E9800492FE30B492F502F080000340034003449
:100EA8000034003400340034003401340134013497
:100EB8000134013401340134013400340034003485
:100EC8000034013401340134013400340034003476
:100ED8000034013401340134013400340034013465
:100EE8000134003400340134013400340034013456
:100EF8000134003400340134013400340134003446
:100F08000134003401340034013400340134003435
:100F18000134003401340034013483120313DD003A
:100F28008E300A128A15C7260A128A1183120313F1
:100F38005D080A128A15C7260A128A11023083121E
:100F480003135906031DB32F0A128A15BD260A1268
:100F58008A1183120313DB005B08BF00B42FBF01A3
:100F68000A128A15BD2683120313DB005B08B00042
:100F78003F08DB00DC015B08DC00DB0130085B07B5
:100F8800DE000030031801305C07DF005F08DA007C
:100F98005E08D90008000230831603139F008312ED
:100FA800031388018901831603138801890101301D
:100FB8000A128A1528270A128A1138300A128A1545
:100FC80028270A128A110C300A128A1528270A12B1
:100FD8008A1106300A128A1528270A128A11023045
:100FE8000A128A152827080064008001840A04066A
:100FF800031900340406F92F08308A000408840A0B
:101008008207003457346F3472346B3469346E3469
:0A10180067342E342E342E340034D9
:101D680083120313DA00DA175A080A128A15282789
:101D78000800831203138C1EBD2E1A08D7005708BB
:101D8800D8005808080083120313D70083160313DA
:101D9800981CCA2E83120313570899000800243090
:101DA8008316031398009830831203139800143095
:101DB8008316031399000B178B170800831203135C
:101DC800D900D8018C11590893008C1DE92E1308ED
:101DD800D7005708D8008C1108007E088A007F08B1
:101DE8008200F1260A128A158000840A04087D06FA
:101DF80003190034FF0A0319FE0AF52E8312031390
:101E0800DA00D9015A1C0C2F5708D8005808D907EE
:101E18000310D70D0310DA0C5A08031D062F5908B2
:101E2800080083120313D9000911891009145908ED
:101E38008800091509110730D8007D30D700D70B65
:101E4800232FD80B232F080083120313D90009115D
:101E58008910091059088800091509110D30D80092
:101E6800FB30D700D70B362FD80B362F3B2F080067
:101E78000C3407340E340D34063409340534003478
:101E8800053402340C3406340A340E340A340B3464
:101E98000934013401340334831203138501FF30FC
:101EA8008316031385008930831203139F000230C1
:101EB800831603139F00533083120313D700D70BE5
:101EC800632F08000C3407340E340D3406340934FB
:101ED80005340034053402340C3406340A340E3424
:101EE8000A340B3409340134013403340334143410
:101EF80001340330831603138600403094002030E9
:101F08008312031394008030831603138700033071
:101F180083120313870004308316031381008B1682
:101F28008B17080083120313DB005B0884000A1276
:101F38008A1500200A128A15003A031908005B085E
:101F480084000A128A1500200A128A150A128A15B4
:101F580015270A128A15013083120313DA005A086A
:101F6800DB07992F0B1DCD2F0B1164308100013039
:101F7800A6070318A70A0030A7070618C72F0130BD
:101F8800F1007108AB078618CD2F0130F1007108F8
:101F9800AA077508FF0074088A0073088400720E87
:101FA8008300FE0E7E0E090083120313DB008930C6
:101FB8000A128A15C7260A128A15831203135B08A8
:101FC8000A128A15C7260A128A158312031358089B
:101FD8000A128A15C7260A128A158312031359088A
:101FE8000A128A15C7260A128A15831203135A0879
:081FF8000A128A15C726080031
:02400E003A3F37
:00000001FF
