:060000000A128A11122809
:10000800FE00030EF2000408F3000A08F40083124D
:1000180003137F08F5000A128A15692A0A128A1141
:1000280015288317D030FD000B30FE004230FF004A
:10003800903084000A128A15E7210A128A11831364
:10004800C830FD000A30FE00B330FF00A030840045
:100058000A128A15E7210A128A116C30FD0009304C
:10006800FE009730FF00653084000A128A15E721E8
:100078000A128A118317D0308400F0300A128A15C8
:100088009E210A128A118313C8308400EC300A12A8
:100098008A159E210A128A11203084004B300A12D8
:1000A8008A159E21F601F701F801F901F001830193
:1000B8000A128A115F287F3083120313E400D430B8
:1000C800E300AE30E200E20B6728E30B6728E40B9D
:1000D80067286E280A128A15C5210A128A110A127F
:1000E8008A1530220A128A110A128A15DB220A128C
:1000F8008A110A128A151A220A128A1103308316E3
:1001080003138600FC308312031386000D30E200CF
:10011800620883120317900010080A128A15D42166
:100128000A128A111A3083120313E4005E30E300C6
:100138008630E200E20B9E28E30B9E28E40B9E2803
:10014800000080300A128A15B9210A128A111A3061
:1001580083120313E4005E30E3008630E200E20B12
:10016800B328E30BB328E40BB328000084300A1249
:100178008A15B9210A128A111A3083120313E4006E
:100188005E30E3008630E200E20BC828E30BC828A3
:10019800E40BC828000083120313EB01EB0AC50126
:1001A8000330E2006208E9008C300A128A15B9218E
:1001B8000A128A1102300A128A15B9210A128A1102
:1001C8000A300A128A15B9210A128A1143300A1212
:1001D8008A15B9210A128A1120300A128A15B92102
:1001E8000A128A114D300A128A15B9210A128A1187
:1001F80010300A128A15B9210A128A114D300A12D2
:100208008A15B9210A128A1110300A128A15B921E1
:100218000A128A114D300A128A15B9210A128A1156
:1002280010300A128A15B9210A128A114D300A12A1
:100238008A15B9210A128A1110300A128A15B921B1
:100248000A128A114C300A128A15B9210A128A1127
:1002580010300A128A15B9210A128A114A300A1274
:100268008A15B9210A128A1110300A128A15B92181
:100278000A128A1148300A128A15B9210A128A11FB
:1002880020300A128A15B9210A128A114F300A122F
:100298008A15B9210A128A1110300A128A15B92151
:1002A8000A128A1154300A128A15B9210A128A11BF
:1002B80030300A128A15B9210A128A1110308312B5
:1002C8000313E200620883120317910008308312B7
:1002D8000313E20062088312031792000C308312A2
:1002E8000313E20062088312031793002430831279
:1002F8000313E2006208831203179400203083126C
:100308000313E20062088312031795008C300A1267
:100318008A15B9210A128A1103300A128A15B921DD
:100328000A128A1110300A128A15B9210A128A1182
:100338003E300A128A15B9210A128A11831203174C
:1003480011080A128A15B9210A128A1145300A12AF
:100358008A15B9210A128A118312031712080A1280
:100368008A15B9210A128A113E300A128A15B92152
:100378000A128A118312031713080A128A15B9215F
:100388000A128A1141300A128A15B9210A128A11F1
:100398008312031714080A128A15B9210A128A113E
:1003A8003E300A128A15B9210A128A1183120317DC
:1003B80015080A128A15B9210A128A1141300A123F
:1003C8008A15B9210A128A118312031711080A1211
:1003D8008A15B9210A128A113E300A128A15B921E2
:1003E8000A128A118312031712080A128A15B921F0
:1003F8000A128A1141300A128A15B9210A128A1181
:100408008312031713080A128A15B9210A128A11CE
:1004180045300A128A15B9210A128A118312031764
:1004280014080A128A15B9210A128A1141300A12CF
:100438008A15B9210A128A118312031715080A129C
:100448008A15B9210A128A1145300A128A15B9216A
:100458000A128A118312031711080A128A15B92180
:100468000A128A1141300A128A15B9210A128A1110
:100478008312031712080A128A15B9210A128A115F
:1004880045300A128A15B9210A128A1183120317F4
:1004980013080A128A15B9210A128A113C300A1265
:1004A8008A15B9210A128A118312031714080A122D
:1004B8008A15B9210A128A1130300A128A15B9210F
:1004C8000A128A118312031715080A128A15B9210C
:1004D8000A128A1141300A128A15B9210A128A11A0
:1004E80010300A128A15B9210A128A118C300A12A0
:1004F8008A15B9210A128A1104300A128A15B921FB
:100508000A128A1103300A128A15B9210A128A11AD
:100518003C300A128A15B9210A128A110C300A12C3
:100528008A15B9210A128A1141300A128A15B9218D
:100538000A128A110C300A128A15B9210A128A1174
:1005480045300A128A15B9210A128A1160300A1236
:100558008A15B9210A128A118C300A128A15B92112
:100568000A128A1105300A128A15B9210A128A114B
:100578000B300A128A15B9210A128A1146300A125A
:100588008A15B9210A128A110C300A128A15B92162
:100598000A128A1143300A128A15B9210A128A11DD
:1005A8000C300A128A15B9210A128A113E300A1231
:1005B8008A15B9210A128A1160300A128A15B921DE
:1005C8000A128A1146300A128A15B9210A128A11AA
:1005D8000C300A128A15B9210A128A1143300A12FC
:1005E8008A15B9210A128A110C300A128A15B92102
:1005F8000A128A113D300A128A15B9210A128A1183
:1006080060300A128A15B9210A128A1146300A1274
:100618008A15B9210A128A110C300A128A15B921D1
:100628000A128A1143300A128A15B9210A128A114C
:100638000C300A128A15B9210A128A113C300A12A2
:100648008A15B9210A128A1160300A128A15B9214D
:100658000A128A1146300A128A15B9210A128A1119
:100668000C300A128A15B9210A128A113C300A1272
:100678008A15B9210A128A1114300A128A15B92169
:100688000A128A118C300A128A15B9210A128A11A3
:1006980006300A128A15B9210A128A110B300A1279
:1006A8008A15B9210A128A1137300A128A15B92116
:1006B8000A128A1116300A128A15B9210A128A11E9
:1006C80037300A128A15B9210A128A1116300A120D
:1006D8008A15B9210A128A1100300A128A15B9211D
:1006E8000A128A1102300A128A15B9210A128A11CD
:1006F8003A300A128A15B9210A128A1112300A12DE
:100708008A15B9210A128A1130300A128A15B921BC
:100718000A128A1118300A128A15B9210A128A1186
:1007280000300A128A15B9210A128A110A300A12EF
:100738008A15B9210A128A1137300A128A15B92185
:100748000A128A1116300A128A15B9210A128A1158
:1007580037300A128A15B9210A128A1116300A127C
:100768008A15B9210A128A1100300A128A15B9218C
:100778000A128A1102300A128A15B9210A128A113C
:1007880035300A128A15B9210A128A1112300A1252
:100798008A15B9210A128A1136300A128A15B92126
:1007A8000A128A1118300A128A15B9210A128A11F6
:1007B8000A308312031332020318861C282C8D304A
:1007C8000A128A15B9210A128A1106300A128A15E4
:1007D800B9210A128A114D3083120313E40019302B
:1007E800E3009A30E200E20BF72BE30BF72BE40B64
:1007F800F72BFE2B8D300A128A15B9210A128A119D
:1008080006300A128A15B9210A128A114D3083124C
:100818000313E4001930E3009A30E200E20B122CD3
:10082800E30B122CE40B122C192C8D300A128A15AA
:10083800B9210A128A1105300A128A15B9210A1239
:100848008A1183120313B2010A3033020318061CFB
:10085800DC2BD00102300A128A15B4240A128A113C
:100868000A128A11F1240A128A11701C402C0A12E9
:100878008A1102270A128A11F01E502C83120313C0
:10088800D00101300A128A15B4240A128A110A12F8
:100898008A11F1240A128A1183120313D00103303A
:1008A8000A128A15B4240A128A110A128A11F1242A
:1008B8000A128A11701C652C0A128A1102270A1260
:1008C8008A11F01E752C83120313D00101300A120D
:1008D8008A15B4240A128A110A128A11F1240A12FA
:1008E8008A11033083120313E2006208D000043037
:1008F8000A128A15B4240A128A110A128A11F124DA
:100908000A128A11701C8D2C0A128A1102270A12E7
:100918008A11F01E9D2C83120313D00101300A1294
:100928008A15B4240A128A110A128A11F1240A12A9
:100938008A11023083120313E2006208D0000330E8
:100948000A128A15B4240A128A110A128A11F12489
:100958000A128A11701CB52C0A128A1102270A126F
:100968008A11F01EC52C83120313D00101300A121C
:100978008A15B4240A128A110A128A11F1240A1259
:100988008A11033083120313E2006208D00000309A
:100998000A128A15B4240A128A110A128A11F12439
:1009A8000A128A11701CDD2C0A128A1102270A12F7
:1009B8008A11F01EED2C83120313D00101300A12A4
:1009C8008A15B4240A128A110A128A11F1240A1209
:1009D8008A1183120313B301DC2B83120313DC0186
:1009E800DC0A5C086A02031C08005C08C83E840034
:1009F800831300086B02031C282D362D00300A12C1
:100A08008A150F240A128A11F22D01300A128A154A
:100A18000F240A128A11F22D01300A128A150F24A6
:100A28000A128A11213083120313DB007630DA00B0
:100A3800DA0B1C2DDB0B1C2D000001300A128A1565
:100A48000F240A128A11F22D831203136908003A3F
:100A58000319022D023A0319092D013A0319102D21
:100A6800352DF22D831203135C08C83E84006B08F1
:100A780083130002031C672D752D01300A128A1595
:100A88000F240A128A11F22D00300A128A150F2437
:100A98000A128A11F22D01300A128A150F240A123D
:100AA8008A11213083120313DB007630DA00DA0B67
:100AB8005B2DDB0B5B2D000001300A128A150F2419
:100AC8000A128A11F22D831203136908003A0319D6
:100AD800412D013A03194F2D033A0319482D742D5E
:100AE800F22D831203135C08D83E84008313000898
:100AF8004502031CA62DB42D00300A128A150F24B6
:100B08000A128A11F22D01300A128A150F240A12CC
:100B18008A11F22D01300A128A150F240A128A113D
:100B2800213083120313DB007630DA00DA0B9A2DBA
:100B3800DB0B9A2D000001300A128A150F240A12C5
:100B48008A11F22D831203136908003A03198E2DB6
:100B5800013A0319802D023A0319872DB32DF22D7E
:100B6800831203135C08D83E8400450883130002EF
:100B7800031CE52DF72D01300A128A150F240A12DD
:100B88008A11F22D00300A128A150F240A128A11CE
:100B9800F22D01300A128A150F240A128A11213007
:100BA80083120313DB007630DA00DA0BD92DDB0B66
:100BB800D92D000001300A128A150F240A128A1151
:100BC800F22D831203136908013A0319BF2D033A62
:100BD8000319CD2D013A0319C62DF22D0A128A11D7
:100BE80006260A128A11701CFF2D14308312031373
:100BF800DA005A08DC00013083120313DA005A08BD
:100C0800DC07F52C83120313A801A901FA30CC00E4
:100C18000030CD00FA30CE000030CF000A128A151D
:100C280082230A128A11831203130615861583126A
:100C380003132908803AFF0083307F02031D262E04
:100C4800E83028020318BA2E023083120313D500A5
:100C58005508CD0013300A128A1504230A128A1186
:100C68008312031328084D07A80029080318290A26
:100C78004E07A900CD01CD0A0D300A128A150423AA
:100C88000A128A11831203134D034E04031D1B2EEF
:100C9800CD01CD0A11300A128A1504230A128A11CD
:100CA800831203134E08803AFF0080307F02031D31
:100CB8005F2EF0304D020318692E7014E93083124C
:100CC8000313A8000330A900861183120313CD0172
:100CD800CD0A11300A128A1504230A128A118312C6
:100CE80003134D08D5005508D900FA3059060319E1
:100CF800812EF6305906031D1B2E0130D5005508EC
:100D0800C007A12E8D300A128A15B9210A128A113C
:100D180005300A128A15B9210A128A11AB2E8D30B4
:100D28000A128A15B9210A128A1103300A128A1581
:100D3800B9210A128A11F016AB2E83120313400848
:100D4800013A0319862E033A0319932EAB2E33303A
:100D580083120313D700BC30D6001030D500D50B52
:100D6800B32ED60BB32ED70BB32E1B2E0030831207
:100D78000313CC00CD000030CE00CF000A128A1534
:100D880082230A128A11701CDC2EF92E013083127C
:100D98000313C502EC2E0130D5005508EB07EC2EE5
:100DA8000130D5005508C507EC2E0130EB02EC2EBA
:100DB800831203136908003A0319CA2E013A03196A
:100DC800CF2E033A0319D42E013A0319D92EEC2E4B
:100DD8000330D7008A30D6005630D500D50BF22E16
:100DE800D60BF22ED70BF22EF92EF01E0800143077
:100DF80083120313D5005508D80008006E2F05305C
:100E080083120313DD005D08CB0045080A128A151A
:100E1800F4210A128A11B43E831203136B07DE0011
:100E28005E08840083130008043E582F0530DD0057
:100E38005D08CB0045080A128A15F4210A128A11A6
:100E4800B43E831203136B07DE005E08840083132D
:100E58000008023E582F0530DD005D08CB0045082C
:100E68000A128A15F4210A128A11B43E8312031356
:100E78006B07DE005E08840083130008013E582FCC
:100E88000530DD005D08CB0045080A128A15F421FB
:100E98000A128A11B43E831203136B07DE005E0840
:100EA800840083130008083EDF000530E000600876
:100EB800CB0045080A128A15F4210A128A11B43E99
:100EC800831203136B07E100610884005F08831332
:100ED80080007E2F831203136908003A0319032F39
:100EE800013A03191A2F033A03192F2F013A03194C
:100EF800442F7E2F00300A128A150F240A128A11F5
:100F080000300A128A150F240A128A118312031359
:100F1800A801A901FA30CC000030CD00FA30CE008B
:100F28000030CF000A128A1582230A128A1183120E
:100F380003132908803AFF0081307F02031DA62F82
:100F4800F43028020318BF2F023083120313DD0088
:100F58005D08CD0013300A128A1504230A128A117B
:100F68008312031328084D07A80029080318290A23
:100F78004E07A9009B2F003083120313CC00CD002D
:100F88000030CE00CF000A128A1582230A128A1175
:100F980070101A3083120313DF005E30DE008630D3
:100FA800DD00DD0BD52FDE0BD52FDF0BD52F000095
:100FB800831203134608DD005D08D00041080A12B9
:100FC8008A15B4240A128A110A128A11F124080017
:100FD80083120313CD000911891009104D088800E8
:100FE800091509110D30CC00FB30CB00CB0BFA2FC3
:100FF800CC0BFA2FFF2F080008308A000408840A57
:101008008207003457346F3472346B3469346E3469
:0A10180067342E342E342E340034D9
:10132E00963400349634003403341434013464009B
:10133E008001840A04060319003404069F298312CF
:10134E000313CE00CE174E080A128A11EC2708009E
:10135E00831203138C1EAF291A08CB004B08CC0046
:10136E004C08080083120313CB0083160313981C3A
:10137E00BC29831203134B089900080024308316EE
:10138E0003139800983083120313980014308316B9
:10139E00031399000B178B17080083120313CD004C
:1013AE00CC018C114D0893008C1DDB291308CB004A
:1013BE004B08CC008C1108007E088A007F08820042
:1013CE00E3210A128A158000840A04087D06031997
:1013DE000034FF0A0319FE0AE72983120313CE0015
:1013EE00CD014E1CFE294B08CC004C08CD07031036
:1013FE00CB0D0310CE0C4E08031DF8294D08080026
:10140E0083120313CD000911891009144D088800A9
:10141E00091509110730CC007D30CB00CB0B152AF6
:10142E00CC0B152A0800831203138501FF30831697
:10143E00031385008930831203139F000230831635
:10144E0003139F00533083120313CB00CB0B2D2AB3
:10145E0008000330831603138600403094002030BA
:10146E008312031394008030831603138700033016
:10147E0083120313870004308316031381008B1627
:10148E008B17080083120313CF004F0884000A1233
:10149E008A1500200A128A15003A031908004F080F
:1014AE0084000A128A1500200A128A150A128A1559
:1014BE0007220A128A15013083120313CE004E083A
:1014CE00CF074C2A0B1D802A0B116430810001308E
:1014DE00AC070318AD0A0030AD0706187A2A0130A2
:1014EE00F1007108B3078618802A0130F1007108E7
:1014FE00B2077508FF0074088A0073088400720E24
:10150E008300FE0E7E0E090083120313CF00893076
:10151E000A128A15B9210A128A15831203134F086B
:10152E000A128A15B9210A128A15831203134C085E
:10153E000A128A15B9210A128A15831203134D084D
:10154E000A128A15B9210A128A15831203134E083C
:10155E000A128A15B92108000C3407340E340D34E2
:10156E000634093405340034053402340C340634A0
:10157E000A340E340A340B34093401340134033482
:10158E000C3407340E340D3406340934053400346B
:10159E00053402340C3406340A340E340A340B3457
:1015AE0009340134013403340230831603139F00CF
:1015BE00831203138801890183160313880189019D
:1015CE0001300A128A11EC270A128A1538300A12D3
:1015DE008A11EC270A128A150C300A128A11EC278E
:1015EE000A128A1506300A128A11EC270A128A1577
:1015FE0002300A128A11EC27080083120313D1005D
:10160E008E300A128A15B9210A128A158312031313
:10161E0051080A128A15B9210A128A15023083124C
:10162E0003134D06031D262B0A128A15AF210A122B
:10163E008A1583120313CF004F08CA00272BCA0145
:10164E000A128A15AF2183120313CF004F08B80078
:10165E004A08CF00D0014F08D000CF0138084F07FD
:10166E00D2000030031801305007D3005308CE00CB
:10167E005208CD0008000034003400340034003429
:10168E0000340034003401340134013401340134A7
:10169E000134013401340034003400340034013498
:1016AE000134013401340034003400340034013488
:1016BE000134013401340034003401340134003477
:1016CE000034013401340034003401340134003468
:1016DE000034013401340034013400340134003458
:1016EE000134003401340034013400340134003448
:1016FE0001340034013483120313B401B0014D08D8
:10170E00803AFF0081307F02031D8F2B00304C0288
:10171E00031CB22B831203134D08D2004C08D100C8
:10172E00B40101305202003003195102031CB22BD6
:10173E005108003ED10052080318013EFF3ED20070
:10174E000130D0005008B4070130520200300319A6
:10175E00510203189F2B831203134C08D00050081C
:10176E00B5004F08803AFF0081307F02031DC12B68
:10177E0000304E02031CE42B831203134F08D400D7
:10178E004E08D300B0010130540200300319530249
:10179E00031CE42B5308003ED30054080318013EEB
:1017AE00FF3ED4000130D0005008B0070130540283
:1017BE000030031953020318D12B831203134E0862
:1017CE00D0005008B10091300A128A15B9210A12C0
:1017DE008A158312031334080A128A15B9210A12C4
:1017EE008A158312031335080A128A15B9210A12B3
:1017FE008A158312031330080A128A15B9210A12A8
:10180E008A158312031331080A128A15B9210800AA
:10181E0083120313D800A601A7015803031D522CEF
:10182E006908031D1F2C0330D5005508E900212C33
:10183E000130E9029630D5005508CC00CD01CE011D
:10184E00CE0A00300A128A158B220A128A158312CA
:10185E0003132708803AFF0080307F02031D392CC6
:10186E00563026020318522C023083120313D50071
:10187E005508CD0014300A128A1504230A128A154F
:10188E008312031326084D07A60027080318270AFC
:10189E004E07A7002E2C831203135808031D972CF6
:1018AE0003306906031D5D2CE901612C0130D50062
:1018BE005508E9079630D5005508CC00FF30D60004
:1018CE005608CD00FF30D7005708CE0000300A1260
:1018DE008A158B220A128A15831203132708803A5F
:1018EE00FF007F307F02031D7E2CAB302602031CCF
:1018FE00972C023083120313D5005508CD001430F7
:10190E000A128A1504230A128A1583120313260853
:10191E004D07A60027080318270A4E07A700732CA9
:10192E00003083120313CC00CD000030CE00CF0068
:10193E000A128A1582230A128A15033083120313A0
:10194E00D7008A30D6005630D500D50BAC2CD60B2E
:10195E00AC2CD70BAC2CB32C080083120313D8007D
:10196E00BB0104303B020318F92CB60105303602D8
:10197E000318F12C0530D1005108CB003B080A1298
:10198E008A15F4210A128A15B43E83120313360700
:10199E00D2005208840083130008D3000530D4000F
:1019AE005408CB003B080A128A15F4210A128A1534
:1019BE00A03E831203133607D50055088400530842
:1019CE00831380000130D1005108B607053036026E
:1019DE00031CC12C0130D1005108BB0704303B025F
:1019EE00031CBC2C1430D1005108EA00BB0102309C
:1019FE003B020318292DB601103036020318212D93
:101A0E003B08D10004300310D10DFF3E031D0A2DFB
:101A1E00C8305107D20036085207D300530884004D
:101A2E00831380010130D1005108B6071030360201
:101A3E00031C072D0130D1005108BB0702303B02B9
:101A4E00031C022D5808D1005108C1005008D100C6
:101A5E005108C6006B08D1005108C3004508D100DB
:101A6E005108C8006908D1005108B900BA01803088
:101A7E000A128A15A6210A128A1501300A128A152F
:101A8E0049220A128A1583120313DA01DB015B085D
:101A9E00803AFF0087307F02031D572DD1305A0246
:101AAE0003180800F011831203134308D1003A08FB
:101ABE00D03E84005108831780004808D1003A08B0
:101ACE00E03E8400510880000530D1005108CB0063
:101ADE0048080A128A15F4210A128A15A03E8312AA
:101AEE0003134307D2005208840083130008903E6C
:101AFE0084007011831700187015053083120313BC
:101B0E00D1005108CB0048080A128A15F4210A1296
:101B1E008A15A03E831203134307D2005208840095
:101B2E0083130008A03E84007013831700187017EB
:101B3E00053083120313D1005108CB0048080A1256
:101B4E008A15F4210A128A15A03E83120313430745
:101B5E00D2005208840083130008B03E8400701235
:101B6E00831700187016053083120313D100510825
:101B7E00CB0048080A128A15F4210A128A15A03ED3
:101B8E00831203134307D200520884008313000804
:101B9E00C03E8400F01083170018F0148312031354
:101BAE003A08031DE32DF12DF014F12D7015F12DD2
:101BBE007017F12D7016F12D3908003A0319DB2D2F
:101BCE00013A0319DD2D033A0319DF2D013A0319EA
:101BDE00E12DF12D003070190130701B013EF0180F
:101BEE00013E701A013ED1005108D900033059024E
:101BFE0003181C2E4308D1005108C2004808D1001A
:101C0E005108C70070190D2E0330192E701B112E9E
:101C1E00B7011C2E701A162EB701B70A1C2EF0181B
:101C2E001C2E0230D1005108B70043085806031D80
:101C3E001A2F48085006031D1A2F6A083A02031875
:101C4E00D22E3A08D1005108EA00BB0102303B0205
:101C5E000318D22EB601103036020318642E3B083C
:101C6E00D10004300310D10DFF3E031D392ED030AC
:101C7E005107D20036085207D30053088400831749
:101C8E000008D4003B08D50004300310D50DFF3EEC
:101C9E00031D4C2EC8305507D60036085607D70000
:101CAE00570884005408831380000130D100510876
:101CBE00B60710303602031C362E0130D100510803
:101CCE00BB072D2E0530D1005108CB0047080A1254
:101CDE008A15F4210A128A15A03E831203134207B5
:101CEE00D2005208840083130008043EBC2E053037
:101CFE00D1005108CB0047080A128A15F4210A12A6
:101D0E008A15A03E831203134207D20052088400A4
:101D1E0083130008023EBC2E0530D1005108CB00C3
:101D2E0047080A128A15F4210A128A15A03E831258
:101D3E0003134207D2005208840083130008013EA9
:101D4E00BC2E0530D1005108CB0047080A128A1567
:101D5E00F4210A128A15A03E831203134207D20001
:101D6E005208840083130008083ED3000530D400C7
:101D7E005408CB0047080A128A15F4210A128A1554
:101D8E00A03E831203134207D50055088400530862
:101D9E0083138000E02E3708003A0319692E013AAA
:101DAE0003197E2E033A0319932E013A0319A82E16
:101DBE00E02E6B08D1005108C3004508D100510830
:101DCE00C8006908D1005108B900BA01F015BB016D
:101DDE0002303B0203181A2FB601103036020318D8
:101DEE00122F3B08D10004300310D10DFF3E031D0E
:101DFE00FB2ED0305107D20036085207D3005308BD
:101E0E008400831780010130D1005108B6071030CD
:101E1E003602031CF82E0130D1005108BB070230E8
:101E2E003B02031CF32E0430590603198C2F0F307E
:101E3E003A0203188C2FD42F0530D1005108CB0055
:101E4E0047080A128A15F4210A128A15A03E831237
:101E5E0003134207D2005208840083130008043E85
:101E6E00762F0530D1005108CB0047080A128A158B
:101E7E00F4210A128A15A03E831203134207D200E0
:101E8E005208840083130008023E762F0530D100DD
:101E9E005108CB0047080A128A15F4210A128A1536
:101EAE00A03E831203134207D2005208840083130C
:101EBE000008013E762F0530D1005108CB004708AF
:101ECE000A128A15F4210A128A15A03E83120313F0
:101EDE004207D2005208840083130008083ED30044
:101EEE000530D4005408CB0047080A128A15F42195
:101EFE000A128A15A03E831203134207D500550815
:101F0E0084005308831380009A2F3708003A031970
:101F1E00232F013A0319382F033A03194D2F013A93
:101F2E000319622F9A2F6B08D1005108C300450880
:101F3E00D1005108C8006908D1005108B900BA0192
:101F4E00F015BB0102303B020318D42FB60110303E
:101F5E0036020318CC2F3B08D10004300310D10DEC
:101F6E00FF3E031DB52FD0305107D2003608520761
:101F7E00D30053088400831780010130D10051082B
:101F8E00B60710303602031CB22F0130D1005108B3
:101F9E00BB0702303B02031CAD2FF019F92F70194D
:101FAE00DC2F0130C3020330F22F701BE22F013001
:101FBE00C802B901F52F701AEB2F0130D10051086C
:101FCE00C307B901B90AF52FF018F92F0130D10066
:101FDE005108C8070230D1005108B9000130D100B4
:101FEE005108BA070130DA070318DB0A0030DB07A5
:021FFE004E2D66
:02400E003A3F37
:00000001FF
