:060000000A128A11122809
:10000800FE00030EF6000408F7000A08F800831241
:1000180003137F08F9000A128A11DA2D0A128A11CD
:1000280015288317D430FD000530FE004D30FF0041
:10003800903084000A128A1163260A128A116030ED
:10004800FD000430FE00B930FF00103084000A12B1
:100058008A1163260A128A118313E430FD000530E1
:10006800FE000930FF00A03084000A128A116326BE
:100078000A128A110A128A1198260A128A11E500B0
:100088000A128A1199260A128A11E6002030840081
:1000980045300A128A119026F001F101F201F301AC
:1000A800F40183010A128A116F2B83120313D10002
:1000B800B5010430350203189E28AE0105302E0222
:1000C800031896280530CA004A08C50035080A12E0
:1000D8008A114C260A128A11C03E831203132E0776
:1000E800CB004B08840083170008CC000530CD00F6
:1000F8004D08C50035080A128A114C260A128A11C1
:10010800D03E831203132E07CE004E0884004C08FD
:10011800831380000130CA004A08AE0705302E025A
:10012800031C66280130CA004A08B50704303502A6
:10013800031C61286608CA004A08BC004008CA00B7
:100148004A08C1006608CA004A08BD004008CA003B
:100158004A08C2003208CA004A08B300B401DC01E8
:10016800DD015D08803AFF0083307F02031DBE2851
:10017800E9305C0203180800831203133D08CA0023
:100188003408B03E84004A08831380004208CA003D
:100198003408C03E84004A0880003D085106031D0B
:1001A8009F2942084906031D9F2965083402031840
:1001B80021293408CA004A08E500B5010330350290
:1001C80003182129AE0110302E0203181929350809
:1001D800CA0004300310CA0DFF3E031DEE28A030EC
:1001E8004A07CB002E084B07CC004C088400831329
:1001F8000008CD003508CE0004300310CE0DFF3EB8
:10020800031D012990304E07CF002E084F07D0005C
:10021800500884004D08831780000130CA004A083E
:10022800AE0710302E02031CEB280130CA004A0822
:10023800B50703303502031CE6280F30CA004A0808
:10024800DE005E08B03E840083130008CA004A0836
:10025800BF005E08C03E84000008CA004A08C40007
:100268000F30CA004A08DE000530CA004A08C50037
:1002780044080A128A114C260A128A11D03E8312A7
:1002880003133F07CB004B08840020308313000280
:10029800031884295E08B03E84000008CA004A0892
:1002A800BF005E08C03E84000008CA004A08C400B7
:1002B8000130DE023829D301D30A53086E29D4014C
:1002C800D40A54086E29D501D50A55086E29D601D5
:1002D800D60A5608CA000530CB004B08C5004408AA
:1002E8000A128A114C260A128A11D03E831203136D
:1002F8003F07CC004C0884004A08831380009229E9
:100308003008003A03195F29013A03196329033AAF
:1003180003196729013A03196B2992293C08CA0075
:100328004A08BD004108CA004A08C2003208CA008B
:100338004A08B300B4010530CA004A08C50042089B
:100348000A128A114C260A128A11D03E831203130C
:100358003D07CB004B08840083130008013E203E74
:10036800840083170008CC004C08B1000530CA008F
:100378004A08C50042080A128A114C260A128A1134
:10038800D03E831203133D07CB004B088400831330
:100398000008013E303E840083170008CC004C085A
:1003A800B8000530CA004A08C50042080A128A1176
:1003B8004C260A128A11D03E831203133D07CB0044
:1003C8004B08840083130008013E403E84008317D5
:1003D8000008CC004C08BB000530CA004A08C5001C
:1003E80042080A128A114C260A128A11D03E831238
:1003F80003133D07CB004B08840083130008013E1C
:10040800503E840083170008CC004C08AF00182A1F
:10041800AF01AF0A262AB101B10A262ABB01BB0ADD
:10042800262AB801B80A262A3308003A03190C2AE2
:10043800013A03190F2A033A0319122A013A031938
:10044800152A262A3B083107CA002F084A07CB007D
:1004580038084B07CC004C08D2000330520203186E
:100468004D2AD701D70A5708CA000530CB004B08D8
:10047800C50042080A128A114C260A128A11D03E77
:10048800831203133D07CC004C0884004A088313E9
:1004980080003108031D6E2A0530CA004A08C500CD
:1004A80042080A128A114C260A128A11D03E831277
:1004B80003133D07CB004B08840020308313000250
:1004C800031C6A2A0330CA004A08B0000130BD0282
:1004D8000330CF2A3B08031D8B2A0530CA004A087F
:1004E800C50042080A128A114C260A128A11D03E07
:1004F800831203133D07CB004B088400203083137D
:1005080000020318B0010130C202B301D22A380830
:10051800031DAD2A0530CA004A08C50042080A1260
:100528008A114C260A128A11D03E831203133D0702
:10053800CB004B088400203083130002031CA62A3A
:10054800B001B00A0130CA004A08BD07B301B30AB6
:10055800D22A2F08031DD62A0530CA004A08C5002A
:1005680042080A128A114C260A128A11D03E8312B6
:1005780003133D07CB004B0884002030831300028F
:10058800031CCA2A0230CA004A08B0000130CA0057
:100598004A08C2070230CA004A08B3000130CA003C
:1005A8004A08B40731083B06031DDC2A0130DD2A5E
:1005B80000303806031DE22A0130E32A00302F06F6
:1005C8000319EA2A33303402031C682B0F30CA009F
:1005D8004A08DF005F08B03E840083130008CA00A1
:1005E8004A08BF005F08C03E84000008CA004A08E5
:1005F800C4000F30CA004A08DF000530CA004A08A4
:10060800C50044080A128A114C260A128A11D03EE3
:10061800831203133F07CB004B0884002030831359
:10062800000203184D2B5F08B03E84000008CA0082
:100638004A08BF005F08C03E84000008CA004A0894
:10064800C4000130DF02012BD801D80A5808372B23
:10065800D901D90A5908372BDA01DA0A5A08372B8F
:10066800DB01DB0A5B08CA000530CB004B08C5007C
:1006780044080A128A114C260A128A11D03E8312A3
:1006880003133F07CC004C0884004A0883138000FA
:100698005B2B3008003A0319282B013A03192C2B3D
:1006A800033A0319302B013A0319342B5B2B3C080E
:1006B800CA004A08BD004108CA004A08C2003208F8
:1006C800CA004A08B300B4010130DC070318DD0A88
:1006D8000030DD07B5280A128A1170260A128A111D
:1006E8000A128A11F6250A128A110A128A1191250C
:1006F8000A128A110A128A110F260A128A11013067
:1007080083120313E0006008E600C001E201E20A78
:100718006203031D1F2C0230E0006008C90003308B
:100728000A128A1159200A128A1180300A128A1173
:100738007F260A128A1183120313E3010A30630227
:100748000318C62B6308A03E840083170008303EB8
:100758000A128A1139260A128A1162308312031387
:10076800E1006530E000E00BB72BE10BB72BBC2BA9
:10077800013083120313E0006008E3070A306302C4
:10078800031CA62B01300A128A11BA250A128A11F3
:10079800831203133408E000E1016008C80061080F
:1007A800C9000A128A1122240A128A11C0300A12B8
:1007B8008A117F260A128A1183120313E4010A3070
:1007C80064020318072C6408B03E840083170008ED
:1007D800303E0A128A1139260A128A1162308312AF
:1007E8000313E1006530E000E00BF82BE10BF82B78
:1007F800FD2B013083120313E0006008E4070A3080
:100808006402031CE72B01300A128A11BA250A1266
:100818008A11831203136508E000E1016008C8002B
:100828006108C9000A128A1122240A128A11831245
:100838000313E2018C2B0A128A1112288312031364
:100848004908D3004808D200CA01CB01CC01CD0128
:10085800CE01CF01D001D101273053021030031946
:100868005202031C542C5208F03ED20053080318BD
:10087800013ED83ED3000130D0070318D10A00301A
:10088800D107302C5208183ED20053080318013EF5
:10089800FC3ED3000130CE070318CF0A0030CF0743
:1008A80003305302E83003195202031C6A2C462C09
:1008B80052089C3ED20053080318013EFF3ED30065
:1008C8000130CC070318CD0A0030CD0700305302A1
:1008D800643003195202031C802C5C2C5208F63E2B
:1008E800D20053080318013EFF3ED3000130CA0767
:1008F8000318CB0A0030CB07003053020A30031923
:1009080052020318722C500851040319922C5008F3
:10091800303E0A128A1139260A128A1183120313E9
:100928004E084F0403199F2C4E08303E0A128A11B4
:1009380039260A128A11831203134C08303E0A1210
:100948008A1139260A128A11831203134A08303E83
:100958000A128A1139260A128A11831203135208BD
:10096800303E0A128A113926080001340234033451
:100978000434053406340734083409340A340B3493
:100988000C340D340E340F34103400340034003479
:1009980000340034003400340034013401340134AC
:1009A800013401340134013401340034003400349A
:1009B800003401340134013401340034003400348B
:1009C800003401340134013401340034003401347A
:1009D800013400340034013401340034003401346B
:1009E800013400340034013401340034013400345B
:1009F800013400340134003401340034013400344B
:100A08000134003401340034013400340134023438
:100A180003340434053406340734083409340A34FA
:100A28000B340C340D340E340F34003400340034DD
:100A3800003400340034003400340034003400340E
:100A480000340034003400340034003400340034FE
:100A580000340034003400340034003400340034EE
:100A6800003400340034003400340C3407340E34BD
:100A78000D340634073405340034053402340C349C
:100A880006340A340E340A340B3409340134013480
:100A98000334003401340234033404340534063496
:100AA8000734083409340A340B340C340D340E344A
:100AB8000F3400340034003400340034003400347F
:100AC800003400340034003400340034003400347E
:100AD800003400340034003400340034003400346E
:100AE800003400340034003400340034003400345E
:100AF80000340C3407340E340D340634073405340E
:100B08000034053402340C3406340A340E340A3402
:100B18000B340934013401340334023083160313CF
:100B28009F00831203138801890183160313880128
:100B3800890101300A128A1125260A128A113830D1
:100B48000A128A1125260A128A110C300A128A11F1
:100B580025260A128A1106300A128A1125260A1237
:100B68008A1102300A128A112526080083120313FB
:100B7800C900490884000A128A1188260A128A11B3
:100B8800003A03190800490884000A128A118826C5
:100B98000A128A110A128A1139260A128A11013098
:100BA80083120313C8004808C907BD2D0B1DEB2D80
:100BB8000B11643081000130A8070318A90A00301E
:100BC800A9070618EB2D0130F5007508AC07790860
:100BD800FF0078088A0077088400760E8300FE0EEE
:100BE8007E0E0900033083160313860040309400FC
:100BF8002030831203139400803083160313870078
:100C08000330831203138700043083160313810013
:100C18008B168B170800831203138501FF30831688
:100C2800031385008930831203139F000230831653
:100C380003139F00533083120313C500C50B222EE4
:100C4800080083120313C700091189100910470807
:100C58008800091509110D30C600FB30C500C50B09
:100C6800332EC60B332E382E080083120313C70009
:100C78000911891009144708880009150911073056
:100C8800C6007D30C500C50B472EC60B472E080091
:100C980083120313C800C701481C562E4508C60016
:100CA8004608C7070310C50D0310C80C4808031DE4
:100CB800502E470808007E088A007F0882005F26B9
:100CC8000A128A118000840A04087D060319003478
:100CD800FF0A0319FE0A632E2430831603139800B3
:100CE8009830831203139800143083160313990065
:100CF8000B178B17080083120313C800C81748087E
:100D08000A128A112526080006308A000408840A77
:100D1800820700342034003464008001840A040609
:0C0D2800031900340406912E1434013429
:02400E003A3F37
:00000001FF
