:060000000A128A11122809
:10000800FE00030EF2000408F3000A08F40083124D
:1000180003137F08F5000A128A151E2A0A128A118C
:1000280015288317D030FD000A30FE00F730FF0096
:10003800903084000A128A15A1210A128A118313AA
:10004800C830FD000A30FE006830FF00A030840090
:100058000A128A15A1210A128A116C30FD00093092
:10006800FE005130FF00653084000A128A15A12174
:100078000A128A118317D0308400F0300A128A15C8
:1000880058210A128A118313C8308400EC300A12EE
:100098008A1558210A128A11203084004B300A121E
:1000A8008A155821F601F701F801F901F0018301D9
:1000B8000A128A115F287F3083120313E400D430B8
:1000C800E300AE30E200E20B6728E30B6728E40B9D
:1000D80067286E280A128A157F210A128A110A12C5
:1000E8008A11E2270A128A110A128A1590220A1224
:1000F8008A110A128A15E8210A128A110330831616
:1001080003138600FC308312031386000D30E200CF
:10011800620883120317900010080A128A158E21AC
:100128000A128A111A3083120313E4005E30E300C6
:100138008630E200E20B9E28E30B9E28E40B9E2803
:10014800000080300A128A1573210A128A111A30A7
:1001580083120313E4005E30E3008630E200E20B12
:10016800B328E30BB328E40BB328000084300A1249
:100178008A1573210A128A111A3083120313E400B4
:100188005E30E3008630E200E20BC828E30BC828A3
:10019800E40BC828000083120313EB01EB0AC50126
:1001A8000330E2006208E9008C300A128A157321D4
:1001B8000A128A1102300A128A1573210A128A1148
:1001C8000A300A128A1573210A128A1143300A1258
:1001D8008A1573210A128A1120300A128A1573218E
:1001E8000A128A114D300A128A1573210A128A11CD
:1001F80010300A128A1573210A128A114D300A1218
:100208008A1573210A128A1110300A128A1573216D
:100218000A128A114D300A128A1573210A128A119C
:1002280010300A128A1573210A128A114D300A12E7
:100238008A1573210A128A1110300A128A1573213D
:100248000A128A114C300A128A1573210A128A116D
:1002580010300A128A1573210A128A114A300A12BA
:100268008A1573210A128A1110300A128A1573210D
:100278000A128A1148300A128A1573210A128A1141
:1002880020300A128A1573210A128A114F300A1275
:100298008A1573210A128A1110300A128A157321DD
:1002A8000A128A1154300A128A1573210A128A1105
:1002B80030300A128A1573210A128A1110308312FB
:1002C8000313E200620883120317910008308312B7
:1002D8000313E20062088312031792000C308312A2
:1002E8000313E20062088312031793002430831279
:1002F8000313E2006208831203179400203083126C
:100308000313E20062088312031795008C300A1267
:100318008A1573210A128A1103300A128A15732169
:100328000A128A1110300A128A1573210A128A11C8
:100338003E300A128A1573210A128A118312031792
:1003480011080A128A1573210A128A1145300A12F5
:100358008A1573210A128A118312031712080A12C6
:100368008A1573210A128A113E300A128A157321DE
:100378000A128A118312031713080A128A157321A5
:100388000A128A1141300A128A1573210A128A1137
:100398008312031714080A128A1573210A128A1184
:1003A8003E300A128A1573210A128A118312031722
:1003B80015080A128A1573210A128A1141300A1285
:1003C8008A1573210A128A118312031711080A1257
:1003D8008A1573210A128A113E300A128A1573216E
:1003E8000A128A118312031712080A128A15732136
:1003F8000A128A1141300A128A1573210A128A11C7
:100408008312031713080A128A1573210A128A1114
:1004180045300A128A1573210A128A1183120317AA
:1004280014080A128A1573210A128A1141300A1215
:100438008A1573210A128A118312031715080A12E2
:100448008A1573210A128A1145300A128A157321F6
:100458000A128A118312031711080A128A157321C6
:100468000A128A1141300A128A1573210A128A1156
:100478008312031712080A128A1573210A128A11A5
:1004880045300A128A1573210A128A11831203173A
:1004980013080A128A1573210A128A113C300A12AB
:1004A8008A1573210A128A118312031714080A1273
:1004B8008A1573210A128A1130300A128A1573219B
:1004C8000A128A118312031715080A128A15732152
:1004D8000A128A1141300A128A1573210A128A11E6
:1004E80010300A128A1573210A128A118C300A12E6
:1004F8008A1573210A128A1104300A128A15732187
:100508000A128A1103300A128A1573210A128A11F3
:100518003C300A128A1573210A128A110C300A1209
:100528008A1573210A128A1141300A128A15732119
:100538000A128A110C300A128A1573210A128A11BA
:1005480045300A128A1573210A128A1160300A127C
:100558008A1573210A128A118C300A128A1573219E
:100568000A128A1105300A128A1573210A128A1191
:100578000B300A128A1573210A128A1146300A12A0
:100588008A1573210A128A110C300A128A157321EE
:100598000A128A1143300A128A1573210A128A1123
:1005A8000C300A128A1573210A128A113E300A1277
:1005B8008A1573210A128A1160300A128A1573216A
:1005C8000A128A1146300A128A1573210A128A11F0
:1005D8000C300A128A1573210A128A1143300A1242
:1005E8008A1573210A128A110C300A128A1573218E
:1005F8000A128A113D300A128A1573210A128A11C9
:1006080060300A128A1573210A128A1146300A12BA
:100618008A1573210A128A110C300A128A1573215D
:100628000A128A1143300A128A1573210A128A1192
:100638000C300A128A1573210A128A113C300A12E8
:100648008A1573210A128A1160300A128A157321D9
:100658000A128A1146300A128A1573210A128A115F
:100668000C300A128A1573210A128A113C300A12B8
:100678008A1573210A128A1114300A128A157321F5
:100688000A128A118C300A128A1573210A128A11E9
:1006980006300A128A1573210A128A110B300A12BF
:1006A8008A1573210A128A1137300A128A157321A2
:1006B8000A128A1116300A128A1573210A128A112F
:1006C80037300A128A1573210A128A1116300A1253
:1006D8008A1573210A128A1100300A128A157321A9
:1006E8000A128A1102300A128A1573210A128A1113
:1006F8003A300A128A1573210A128A1112300A1224
:100708008A1573210A128A1130300A128A15732148
:100718000A128A1118300A128A1573210A128A11CC
:1007280000300A128A1573210A128A110A300A1235
:100738008A1573210A128A1137300A128A15732111
:100748000A128A1116300A128A1573210A128A119E
:1007580037300A128A1573210A128A1116300A12C2
:100768008A1573210A128A1100300A128A15732118
:100778000A128A1102300A128A1573210A128A1182
:1007880035300A128A1573210A128A1112300A1298
:100798008A1573210A128A1136300A128A157321B2
:1007A8000A128A1118300A128A1573210A128A113C
:1007B8000A308312031332020318861C282C8D304A
:1007C8000A128A1573210A128A1106300A128A152A
:1007D80073210A128A114D3083120313E400193071
:1007E800E3009A30E200E20BF72BE30BF72BE40B64
:1007F800F72BFE2B8D300A128A1573210A128A11E3
:1008080006300A128A1573210A128A114D30831292
:100818000313E4001930E3009A30E200E20B122CD3
:10082800E30B122CE40B122C192C8D300A128A15AA
:1008380073210A128A1105300A128A1573210A12C5
:100848008A1183120313B2010A3033020318061CFB
:10085800DC2BD00102300A128A1569240A128A1187
:100868000A128A11F1240A128A11701C402C0A12E9
:100878008A11F8260A128A11F01E502C83120313CB
:10088800D00101300A128A1569240A128A110A1243
:100898008A11F1240A128A1183120313D00103303A
:1008A8000A128A1569240A128A110A128A11F12475
:1008B8000A128A11701C652C0A128A11F8260A126B
:1008C8008A11F01E752C83120313D00101300A120D
:1008D8008A1569240A128A110A128A11F1240A1245
:1008E8008A11033083120313E2006208D000043037
:1008F8000A128A1569240A128A110A128A11F12425
:100908000A128A11701C8D2C0A128A11F8260A12F2
:100918008A11F01E9D2C83120313D00101300A1294
:100928008A1569240A128A110A128A11F1240A12F4
:100938008A11023083120313E2006208D0000330E8
:100948000A128A1569240A128A110A128A11F124D4
:100958000A128A11701CB52C0A128A11F8260A127A
:100968008A11F01EC52C83120313D00101300A121C
:100978008A1569240A128A110A128A11F1240A12A4
:100988008A11033083120313E2006208D000033097
:100998000A128A1569240A128A110A128A11F12484
:1009A8000A128A11701CDD2C0A128A11F8260A1202
:1009B8008A11F01EED2C83120313D00101300A12A4
:1009C8008A1569240A128A110A128A11F1240A1254
:1009D8008A1183120313B301DC2B83120313DC0186
:1009E800DC0A5C086A02031C08005C08C83E840034
:1009F800831300086B02031C282D362D00300A12C1
:100A08008A15C4230A128A11F22D01300A128A1596
:100A1800C4230A128A11F22D01300A128A15C4233E
:100A28000A128A11213083120313DB007630DA00B0
:100A3800DA0B1C2DDB0B1C2D000001300A128A1565
:100A4800C4230A128A11F22D831203136908003A8B
:100A58000319022D023A0319092D013A0319102D21
:100A6800352DF22D831203135C08C83E84006B08F1
:100A780083130002031C672D752D01300A128A1595
:100A8800C4230A128A11F22D00300A128A15C423CF
:100A98000A128A11F22D01300A128A15C4230A1289
:100AA8008A11213083120313DB007630DA00DA0B67
:100AB8005B2DDB0B5B2D000001300A128A15C42365
:100AC8000A128A11F22D831203136908003A0319D6
:100AD800412D013A03194F2D033A0319482D742D5E
:100AE800F22D831203135C08D83E84008313000898
:100AF8004502031CA62DB42D00300A128A15C42302
:100B08000A128A11F22D01300A128A15C4230A1218
:100B18008A11F22D01300A128A15C4230A128A1189
:100B2800213083120313DB007630DA00DA0B9A2DBA
:100B3800DB0B9A2D000001300A128A15C4230A1211
:100B48008A11F22D831203136908003A03198E2DB6
:100B5800013A0319802D023A0319872DB32DF22D7E
:100B6800831203135C08D83E8400450883130002EF
:100B7800031CE52DF72D01300A128A15C4230A1229
:100B88008A11F22D00300A128A15C4230A128A111A
:100B9800F22D01300A128A15C4230A128A11213053
:100BA80083120313DB007630DA00DA0BD92DDB0B66
:100BB800D92D000001300A128A15C4230A128A119D
:100BC800F22D831203136908013A0319BF2D033A62
:100BD8000319CD2D013A0319C62DF22D0A128A11D7
:100BE80006260A128A11701CFF2D14308312031373
:100BF800DA005A08DC00013083120313DA005A08BD
:100C0800DC07F52C83120313A801A901FA30CC00E4
:100C18000030CD00FA30CE000030CF000A128A151D
:100C280037230A128A1183120313061586158312B5
:100C380003132908803AFF0083307F02031D262E04
:100C4800E83028020318B02E023083120313D500AF
:100C58005508CD0013300A128A15B9220A128A11D2
:100C68008312031328084D07A80029080318290A26
:100C78004E07A900CD01CD0A0D300A128A15B922F6
:100C88000A128A11831203134D034E04031D1B2EEF
:100C9800CD01CD0A11300A128A15B9220A128A1119
:100CA800F230831203134D064E040319612E70149B
:100CB800E930A8000330A9008611CD01CD0A113012
:100CC8000A128A15B9220A128A11831203134D08CF
:100CD800D5005508D900FA3059060319772EF63091
:100CE8005906031D1B2E0130D5005508C007972E45
:100CF8008D300A128A1573210A128A1105300A12D8
:100D08008A1573210A128A11A12E8D300A128A15AA
:100D180073210A128A1103300A128A1573210A12E2
:100D28008A11F016A12E831203134008013A031901
:100D38007C2E033A0319892EA12E33308312031314
:100D4800D700BC30D6001030D500D50BA92ED60B55
:100D5800A92ED70BA92E1B2E003083120313CC000B
:100D6800CD000030CE00CF000A128A1537230A12B0
:100D78008A11701CD22EEF2E013083120313C50284
:100D8800E22E0130D5005508EB07E22E0130D500E0
:100D98005508C507E22E0130EB02E22E8312031339
:100DA8006908003A0319C02E013A0319C52E033AFF
:100DB8000319CA2E013A0319CF2EE22E0330D700A9
:100DC8008A30D6005630D500D50BE82ED60BE82E43
:100DD800D70BE82EEF2EF01E0800143083120313F1
:100DE800D5005508D8000800642F05308312031376
:100DF800DD005D08CB0045080A128A15AE210A12EB
:100E08008A11B43E831203136B07DE005E08840068
:100E180083130008043E4E2F0530DD005D08CB002B
:100E280045080A128A15AE210A128A11B43E8312A5
:100E380003136B07DE005E08840083130008023E7C
:100E48004E2F0530DD005D08CB0045080A128A15D3
:100E5800AE210A128A11B43E831203136B07DE0017
:100E68005E08840083130008013E4E2F0530DD0024
:100E78005D08CB0045080A128A15AE210A128A11AC
:100E8800B43E831203136B07DE005E0884008313ED
:100E98000008083EDF000530E0006008CB00450888
:100EA8000A128A15AE210A128A11B43E831203135C
:100EB8006B07E100610884005F0883138000742FCA
:100EC800831203136908003A0319F92E013A03192A
:100ED800102F033A0319252F013A03193A2F742FBB
:100EE80000300A128A15C4230A128A1100300A1225
:100EF8008A15C4230A128A1183120313A801A901AF
:100F0800FA30CC000030CD00FA30CE000030CF00EF
:100F18000A128A1537230A128A1183120313290821
:100F2800803AFF0081307F02031D9C2FF430280295
:100F38000318B52F023083120313DD005D08CD00BE
:100F480013300A128A15B9220A128A11831203135E
:100F580028084D07A80029080318290A4E07A900E0
:100F6800912F003083120313CC00CD000030CE0047
:100F7800CF000A128A1537230A128A1170101A3004
:100F880083120313DF005E30DE008630DD00DD0BE8
:100F9800CB2FDE0BCB2FDF0BCB2F000083120313DD
:100FA8004608DD005D08D00041080A128A15692448
:100FB8000A128A110A128A11F124080003308316D2
:100FC80003138600403094002030831203139400EA
:100FD80080308316031387000330831203138700BE
:0E0FE80004308316031381008B168B1708004C
:1010000008308A000408840A8207003457346F3499
:1010100072346B3469346E3467342E342E342E348B
:0210200000349A
:1012A2009634003496340034033414340134640028
:1012B2008001840A040603190034040659298312A2
:1012C2000313CE00CE174E080A128A15D421080045
:1012D200831203138C1E69291A08CB004B08CC0019
:1012E2004C08080083120313CB0083160313981CC7
:1012F2007629831203134B089900080024308316C1
:101302000313980098308312031398001430831645
:10131200031399000B178B17080083120313CD00D8
:10132200CC018C114D0893008C1D95291308CB001C
:101332004B08CC008C1108007E088A007F088200CE
:101342009D210A128A158000840A04087D06031969
:101352000034FF0A0319FE0AA12983120313CE00E7
:10136200CD014E1CB8294B08CC004C08CD07031008
:10137200CB0D0310CE0C4E08031DB2294D080800F8
:1013820083120313CD000911891009144D08880036
:10139200091509110730CC007D30CB00CB0BCF29CA
:1013A200CC0BCF29080083120313CD000911891039
:1013B20009104D088800091509110D30CC00FB30C9
:1013C200CB00CB0BE229CC0BE229E72908008312E0
:1013D20003138501FF3083160313850089308312BE
:1013E20003139F000230831603139F0053308312AE
:1013F2000313CB00CB0BFB29080083120313CF008E
:101402004F0884000A128A1500200A128A15003A2F
:10141200031908004F0884000A128A1500200A12D4
:101422008A150A128A15C1210A128A1501308312FD
:101432000313CE004E08CF07012A0B1D352A0B11CC
:10144200643081000130AC070318AD0A0030AD07EB
:1014520006182F2A0130F1007108B3078618352AC1
:101462000130F1007108B2077508FF0074088A00A4
:1014720073088400720E8300FE0E7E0E0900831232
:101482000313CF0089300A128A1573210A128A15B2
:10149200831203134F080A128A1573210A128A153E
:1014A200831203134C080A128A1573210A128A1531
:1014B200831203134D080A128A1573210A128A1520
:1014C200831203134E080A128A15732108000C3482
:1014D20007340E340D34063409340534003405342F
:1014E20002340C3406340A340E340A340B34093410
:1014F2000134013403340C3407340E340D34063411
:10150200093405340034053402340C3406340A3408
:101512000E340A340B3409340134013403340230FA
:10152200831603139F008312031388018901831614
:1015320003138801890101300A128A15D4210A1283
:101542008A1538300A128A15D4210A128A150C30EB
:101552000A128A15D4210A128A1506300A128A152D
:10156200D4210A128A1502300A128A15D4210800DF
:1015720083120313D1008E300A128A1573210A12C4
:101582008A158312031351080A128A1573210A124B
:101592008A150230831203134D06031DDB2A0A1239
:1015A2008A1569210A128A1583120313CF004F0884
:1015B200CA00DC2ACA010A128A156921831203139E
:1015C200CF004F08B8004A08CF00D0014F08D00022
:1015D200CF0138084F07D2000030031801305007FE
:1015E200D3005308CE005208CD0008000034003466
:1015F2000034003400340034003400340134013447
:101602000134013401340134013401340034003432
:101612000034003401340134013401340034003424
:101622000034003401340134013401340034003414
:101632000134013400340034013401340034003404
:1016420001340134003400340134013400340134F3
:1016520000340134003401340034013400340134E4
:101662000034013400340134003401348312031392
:10167200B401B0014D08803AFF0081307F02031DA2
:10168200442B00304C02031C672B831203134D08BA
:10169200D2004C08D100B4010130520200300319CB
:1016A2005102031C672B5108003ED1005208031857
:1016B200013EFF3ED2000130D0005008B407013095
:1016C20052020030031951020318542B83120313E0
:1016D2004C08D0005008B5004F08803AFF00813016
:1016E2007F02031D762B00304E02031C992B8312BE
:1016F20003134F08D4004E08D300B0010130540246
:10170200003003195302031C992B5308003ED300E7
:1017120054080318013EFF3ED4000130D0005008A7
:10172200B007013054020030031953020318862B0C
:10173200831203134E08D0005008B10091300A12F0
:101742008A1573210A128A158312031334080A12A6
:101752008A1573210A128A158312031335080A1295
:101762008A1573210A128A158312031330080A128A
:101772008A1573210A128A158312031331080A1279
:101782008A157321080083120313D800A601A7014A
:101792005803031D072C6908031DD42B0330D50001
:1017A2005508E900D62B0130E9029630D5005508DC
:1017B200CC00CD01CE01CE0A00300A128A15402299
:1017C2000A128A15831203132708803AFF00803019
:1017D2007F02031DEE2B563026020318072C02301F
:1017E20083120313D5005508CD0014300A128A154E
:1017F200B9220A128A158312031326084D07A6007E
:1018020027080318270A4E07A700E32B83120313A6
:101812005808031D4C2C03306906031D122CE901E4
:10182200162C0130D5005508E9079630D500550829
:10183200CC00FF30D6005608CD00FF30D700570845
:10184200CE0000300A128A1540220A128A1583122B
:1018520003132708803AFF007F307F02031D332CD9
:10186200AB302602031C4C2C023083120313D5002A
:101872005508CD0014300A128A15B9220A128A15A7
:101882008312031326084D07A60027080318270A08
:101892004E07A700282C003083120313CC00CD0082
:1018A2000030CE00CF000A128A1537230A128A1599
:1018B200033083120313D7008A30D6005630D50086
:1018C200D50B612CD60B612CD70B612C682C080030
:1018D20083120313D800BB0104303B020318AE2C61
:1018E200B601053036020318A62C0530D100510886
:1018F200CB003B080A128A15AE210A128A15B43EA1
:10190200831203133607D20052088400831300089F
:10191200D3000530D4005408CB003B080A128A15C4
:10192200AE210A128A15A03E831203133607D50090
:10193200550884005308831380000130D1005108F8
:10194200B60705303602031C762C0130D10051084F
:10195200BB0704303B02031C712C1430D100510828
:10196200EA00BB0102303B020318DE2CB601103044
:1019720036020318D62C3B08D10004300310D10DD7
:10198200FF3E031DBF2CC8305107D2003608520754
:10199200D30053088400831380010130D100510821
:1019A200B60710303602031CBC2C0130D10051089E
:1019B200BB0702303B02031CB72C5808D100510868
:1019C200C1005008D1005108C6006B08D10051086F
:1019D200C3004508D1005108C8006908D100510868
:1019E200B900BA0180300A128A1560210A128A15DA
:1019F20001300A128A15FE210A128A158312031374
:101A0200DA01DB015B08803AFF0087307F02031DA9
:101A12000C2DD1305A020318BF2FF0118312031379
:101A22004308D1003A08D03E840051088317800051
:101A32004808D1003A08E03E840051088000053091
:101A4200D1005108CB0048080A128A15AE210A12A9
:101A52008A15A03E831203134307D2005208840062
:101A620083130008903E84007011831700187015CC
:101A7200053083120313D1005108CB0048080A1223
:101A82008A15AE210A128A15A03E83120313430758
:101A9200D2005208840083130008A03E8400701311
:101AA200831700187017053083120313D1005108F1
:101AB200CB0048080A128A15AE210A128A15A03EE6
:101AC200831203134307D2005208840083130008D1
:101AD200B03E84007012831700187016053083120E
:101AE2000313D1005108CB0048080A128A15AE210F
:101AF2000A128A15A03E831203134307D20052082A
:101B0200840083130008C03E8400F010831700187D
:101B1200F014831203133A08031D982DA62DF01416
:101B2200A62D7015A62D7017A62D7016A62D390894
:101B3200003A0319902D013A0319922D033A031921
:101B4200942D013A0319962DA62D003070190130FB
:101B5200701B013EF018013E701A013ED10051087F
:101B6200D900033059020318D12D4308D10051087E
:101B7200C2004808D1005108C7007019C22D0330B5
:101B8200CE2D701BC62DB701D12D701ACB2DB701EA
:101B9200B70AD12DF018D12D0230D1005108B7006B
:101BA20043085806031DCF2E48085006031DCF2EAA
:101BB2006A083A020318872E3A08D1005108EA004F
:101BC200BB0102303B020318872EB60110303602E9
:101BD2000318192E3B08D10004300310D10DFF3E2B
:101BE200031DEE2DD0305107D20036085207D30024
:101BF2005308840083170008D4003B08D500043042
:101C02000310D50DFF3E031D012EC8305507D60027
:101C120036085607D70057088400540883138000FB
:101C22000130D1005108B60710303602031CEB2DEB
:101C32000130D1005108BB07E22D0530D100510817
:101C4200CB0047080A128A15AE210A128A15A03E55
:101C5200831203134207D200520884008313000840
:101C6200043E712E0530D1005108CB0047080A12FC
:101C72008A15AE210A128A15A03E83120313420767
:101C8200D2005208840083130008023E712E0530F0
:101C9200D1005108CB0047080A128A15AE210A1258
:101CA2008A15A03E831203134207D2005208840011
:101CB20083130008013E712E0530D1005108CB007C
:101CC20047080A128A15AE210A128A15A03E83120B
:101CD20003134207D2005208840083130008083E0F
:101CE200D3000530D4005408CB0047080A128A15E5
:101CF200AE210A128A15A03E831203134207D500B1
:101D020055088400530883138000952E3708003A43
:101D120003191E2E013A0319332E033A0319482ED2
:101D2200013A03195D2E952E6B08D1005108C300AC
:101D32004508D1005108C8006908D1005108B9000E
:101D4200BA01F015BB0102303B020318CF2EB601D7
:101D5200103036020318C72E3B08D100043003109E
:101D6200D10DFF3E031DB02ED0305107D2003608F0
:101D72005207D30053088400831780010130D10039
:101D82005108B60710303602031CAD2E0130D100C7
:101D92005108BB0702303B02031CA82E043059062F
:101DA2000319412F0F303A020318412F892F0530B2
:101DB200D1005108CB0047080A128A15AE210A1237
:101DC2008A15A03E831203134207D20052088400F0
:101DD20083130008043E2B2F0530D1005108CB009D
:101DE20047080A128A15AE210A128A15A03E8312EA
:101DF20003134207D2005208840083130008023EF4
:101E02002B2F0530D1005108CB0047080A128A1542
:101E1200AE210A128A15A03E831203134207D20092
:101E22005208840083130008013E2B2F0530D10095
:101E32005108CB0047080A128A15AE210A128A15E8
:101E4200A03E831203134207D20052088400831378
:101E52000008083ED3000530D4005408CB004708E0
:101E62000A128A15AE210A128A15A03E83120313A2
:101E72004207D500550884005308831380004F2F72
:101E82003708003A0319D82E013A0319ED2E033A06
:101E92000319022F013A0319172F4F2F6B08D10094
:101EA2005108C3004508D1005108C8006908D10093
:101EB2005108B900BA01F015BB0102303B02031808
:101EC200892FB601103036020318812F3B08D1004A
:101ED20004300310D10DFF3E031D6A2FD03051078D
:101EE200D20036085207D3005308840083178001BA
:101EF2000130D1005108B60710303602031C672F9B
:101F02000130D1005108BB0702303B02031C622F93
:101F1200F019AE2F7019912F0130C3020330A72F91
:101F2200701B972F0130C802B901AA2F701AA02F77
:101F32000130D1005108C307B901B90AAA2FF0181C
:101F4200AE2F0130D1005108C8070230D10051082C
:101F5200B9000130D1005108BA070130DA0703187D
:101F6200DB0A0030DB075B08803AFF0087307F0224
:101F7200031DBD2FD1305A02031C0E2D80300A12D0
:101F82008A1560210A128A1583120313B6011030D2
:101F920036020318E12F3608C83E84008313000876
:101FA200303E0A128A15C1210A128A1501308312A3
:101FB2000313D1005108B60710303602031CCC2F90
:101FC20040300A128A1560210A128A1583120313FD
:101FD200B60110303602031808003608D83E8400D5
:101FE20083130008303E0A128A15C1210A128A158B
:0E1FF200013083120313D1005108B607EA2F05
:02400E003A3F37
:00000001FF
