:060000000A128A11122809
:10000800FE00030EF6000408F7000A08F800831241
:1000180003137F08F9000A128A110A2E0A128A119C
:1000280015288317F030FD000430FE00E930FF008A
:10003800903084000A128A1193260A128A116030BD
:10004800FD000530FE004930FF00103084000A1220
:100058008A1193260A128A118313C830FD000530CD
:10006800FE00C230FF00A03084000A128A119326D5
:100078000A128A116B30FD000630FE00CC30FF00FA
:10008800673084000A128A1193260A128A112030D6
:10009800840048300A128A11C426F001F101F201E5
:1000A800F301F40183010A128A118A2B83120313C4
:1000B800DF00B5010430350203189F28AE01053072
:1000C8002E02031897280530D8005808C8003508AC
:1000D8000A128A117C260A128A11B43E831203136B
:1000E8002E07D9005908840083130008DA00053068
:1000F800DB005B08C80035080A128A117C260A1240
:100108008A11A03E831203132E07DC005C088400CA
:100118005A08831380000130D8005808AE0705300C
:100128002E02031C67280130D8005808B507043090
:100138003502031C62286A08D8005808BE00420825
:10014800D8005808C4006A08D8005808BF004208F8
:10015800D8005808C5006808D8005808B300B4018A
:10016800E101E2016208803AFF0083307F02031D4B
:10017800BF28E93061020318080083120313B8018D
:100188003F08D8003408A03E840058088317800030
:100198004508D8003408B03E840058088000013073
:1001A8000A128A1155260A128A118E300A128A11E9
:1001B800BB260A128A11831203136208CC00610855
:1001C800CB000A128A114E240A128A1105308312B2
:1001D8000313D8005808C80045080A128A117C265B
:1001E8000A128A11A03E831203133F07D900590847
:1001F800840083130008203E840083170008DA0077
:100208005A08B2000530D8005808C80045080A1234
:100218008A117C260A128A11A03E831203133F0713
:10022800D9005908840083130008303E84008317DE
:100238000008DA005A08BC000530D8005808C80081
:1002480045080A128A117C260A128A11A03E8312D6
:1002580003133F07D9005908840083130008403E60
:10026800840083170008DA005A08B9000530D8005E
:100278005808C80045080A128A117C260A128A11F1
:10028800A03E831203133F07D90059088400831343
:100298000008503E840083170008DA005A08AF00AF
:1002A8006129AF01AF0A6F29B201B20A6F29BC01F7
:1002B800BC0A6F29B901B90A6F293308003A031932
:1002C8005529013A03195829033A03195B29013AB8
:1002D80003195E296F293C083207D8002F085807F0
:1002E800D90039085907DA005A08E00003306002DB
:1002F80003189D293F08D8005808BD004508D800B4
:100308005808C3003208031D8B2903309A293C087A
:10031800031D9029B1019D293908031D9629B101B2
:10032800B10A9D292F08031D9D290230D8005808BD
:10033800B1003F085F06031D9D2A45085706031DA7
:100348009D2A690834020318532A3408D80058082B
:10035800E900B501B50A033035020318532AAE0186
:1003680010302E020318E5293508D8000430031090
:10037800D80DFF3E031DBB2990305807D9002E0821
:100388005907DA005A08840083170008DB0035088B
:10039800DC0004300310DC0DFF3E031DCE29C03005
:1003A8005C07DD002E085D07DE005E0884005B0840
:1003B80080000130D8005808AE0710302E02031C08
:1003C800B8290130D8005808B507AF290530D8003A
:1003D8005808C80043080A128A117C260A128A1192
:1003E800A03E831203133D07D900590884008313E4
:1003F8000008043E3D2A0530D8005808C8004308C4
:100408000A128A117C260A128A11A03E831203134B
:100418003D07D9005908840083130008023E3D2A8D
:100428000530D8005808C80043080A128A117C26EB
:100438000A128A11A03E831203133D07D9005908F6
:10044800840083130008013E3D2A0530D80058086F
:10045800C80043080A128A117C260A128A11A03E93
:10046800831203133D07D900590884008313000839
:10047800083EDA000530DB005B08C80043080A12B2
:100488008A117C260A128A11A03E831203133D07A3
:10049800DC005C0884005A0883138000612A310854
:1004A800003A0319EA29013A0319FF29033A031903
:1004B800142A013A0319292A612A3E08D800580843
:1004C800BF004408D8005808C5006808D800580874
:1004D800B300B401B801B80AB501B50A0330350252
:1004E80003189D2AAE0110302E020318952A3508EC
:1004F800D80004300310D80DFF3E031D7E2A90302B
:100508005807D9002E085907DA005A0884008317BB
:1005180080010130D8005808AE0710302E02031CA5
:100528007B2A0130D8005808B50703303502031C70
:10053800762A0430600603190F2B0F303402031893
:100548000F2B592B0530D8005808C80043080A1249
:100558008A117C260A128A11A03E831203133D07D2
:10056800D9005908840083130008043EF92A05308D
:10057800D8005808C80043080A128A117C260A12B3
:100588008A11A03E831203133D07D900590884003D
:1005980083130008023EF92A0530D8005808C8001D
:1005A80043080A128A117C260A128A11A03E831275
:1005B80003133D07D9005908840083130008013E3E
:1005C800F92A0530D8005808C80043080A128A11C9
:1005D8007C260A128A11A03E831203133D07D90014
:1005E8005908840083130008083EDA000530DB0050
:1005F8005B08C80043080A128A117C260A128A116D
:10060800A03E831203133D07DC005C0884005A08EF
:10061800831380001D2B3108003A0319A62A013ADA
:100628000319BB2A033A0319D02A013A0319E52A08
:100638001D2B3E08D8005808BF004408D8005808A9
:10064800C5006808D8005808B300B401B801B80A52
:10065800B501B50A033035020318592BAE01103025
:100668002E020318512B3508D80004300310D80D7A
:10067800FF3E031D3A2B90305807D9002E08590722
:10068800DA005A088400831780010130D80058081E
:10069800AE0710302E02031C372B0130D800580843
:1006A800B50703303502031C322B38030319832B9B
:1006B8003208031D632B0130BF0203307C2B3C083A
:1006C800031D6A2B0130C502B3017F2B3908031DB6
:1006D800742B0130D8005808BF07B301B30A7F2B29
:1006E8002F08031D832B0130D8005808C507023096
:1006F800D8005808B3000130D8005808B4070130B2
:10070800E1070318E20A0030E207B6280A128A1144
:10071800A0260A128A110A128A1126260A128A119A
:100728000A128A1199250A128A110A128A113F2679
:100738000A128A1183160313860183120313EA012E
:10074800EA0AC2010330E3006308E8000330E3006B
:100758006308D70000300A128A115A200A128A1137
:100768004D3083120313E5001930E4009A30E3009A
:10077800E30BBC2BE40BBC2BE50BBC2BC32B0130D0
:100788000A128A1155260A128A1180300A128A1111
:10079800BB260A128A1101300A128A11EA250A12A6
:1007A8008A11C0300A128A11BB260A128A11043033
:1007B8000A128A11EA250A128A1183120313E60122
:1007C80066086902031C192C6608823E0A128A11FF
:1007D800BB260A128A11831203136608D03E8400CE
:1007E80083170008303E0A128A1169260A128A11F4
:1007F800831203136608C23E0A128A11BB260A1224
:100808008A11831203136608E03E840083170008E8
:10081800303E0A128A1169260A128A11013083129F
:100828000313E3006308E607E42B8E300A128A11EB
:10083800BB260A128A11831203136908E300E40134
:100848006308CB006408CC000A128A114E240A12ED
:100858008A118312031306140D30E500AF30E4004B
:10086800C130E300E30B362CE40B362CE50B362CB9
:1008780000008312031306100D30E500AF30E400CA
:10088800C130E300E30B462CE40B462CE50B462C69
:1008980000002D2C831203134C08D6004B08D500FA
:1008A800CD01CE01CF01D001D101D201D301D401B4
:1008B80027305602103003195502031C802C5508A6
:1008C800F03ED50056080318013ED83ED600013048
:1008D800D3070318D40A0030D4075C2C5508183EF7
:1008E800D50056080318013EFC3ED6000130D1075A
:1008F8000318D20A0030D20703305602E830031931
:100908005502031C962C722C55089C3ED50056089F
:100918000318013EFF3ED6000130CF070318D00A66
:100928000030D00700305602643003195502031C0A
:10093800AC2C882C5508F63ED50056080318013E05
:10094800FF3ED6000130CD070318CE0A0030CE078F
:10095800003056020A300319550203189E2C53081A
:1009680054040319BE2C5308303E0A128A11692612
:100978000A128A1183120313510852040319CB2C4B
:100988005108303E0A128A1169260A128A11831206
:1009980003134F0850040319D82C4F08303E0A128D
:1009A8008A1169260A128A11831203134D08303EF0
:1009B8000A128A1169260A128A118312031355082A
:1009C800303E0A128A1169260800003401340234C4
:1009D80003340434053406340734083409340A343B
:1009E8000B340C340D340E340F340034003400341E
:1009F800003400340034003400340034003400344F
:100A0800003400340034003400340034003400343E
:100A1800003400340034003400340034003400342E
:100A2800003400340034003400340034013402341B
:100A380003340434053406340734083409340A34DA
:100A48000B340C340D340E340F34003400340034BD
:100A580000340034003400340034003400340034EE
:100A680000340034003400340034003400340034DE
:100A780000340034003400340034003400340034CE
:100A880000340034003400340034003401340234BB
:100A980003340434053406340734083409340A347A
:100AA8000B340C340D340E340F340034003400345D
:100AB800003400340034003400340134013401348B
:100AC8000134013401340134013400340034003479
:100AD800003401340134013401340034003400346A
:100AE8000034013401340134013400340034013459
:100AF800013400340034013401340034003401344A
:100B08000134003400340134013400340134003439
:100B18000134003401340034013400340134003429
:100B280001340034013400340134023083160313D5
:100B38009F00831203138801890183160313880118
:100B4800890101300A128A1155260A128A11383091
:100B58000A128A1155260A128A110C300A128A11B1
:100B680055260A128A1106300A128A1155260A12C7
:100B78008A1102300A128A11552608000C340734EB
:100B88000E340D3406340934053400340534023487
:100B98000C3406340A340E340A340B340934013464
:100BA800013403340C3407340E340D34063409345C
:100BB80005340034053402340C3406340A340E3457
:100BC8000A340B3409340134013403348312031317
:100BD800CC004C0884000A128A11AF260A128A1126
:100BE800003A031908004C0884000A128A11AF263B
:100BF8000A128A110A128A1169260A128A11013008
:100C080083120313CB004B08CC07ED2D0B1D1B2EB5
:100C18000B11643081000130A8070318A90A0030BD
:100C2800A90706181B2E0130F5007508AC077908CE
:100C3800FF0078088A0077088400760E8300FE0E8D
:100C48007E0E09000330831603138600403094009B
:100C58002030831203139400803083160313870017
:100C680003308312031387000430831603138100B3
:100C78008B168B170800831203138501FF30831628
:100C8800031385008930831203139F0002308316F3
:100C980003139F00533083120313C800C80B522E4E
:100CA800080083120313CA000911891009104A08A1
:100CB8008800091509110D30C900FB30C800C80BA0
:100CC800632EC90B632E682E080083120313CA0013
:100CD8000911891009144A088800091509110730F3
:100CE800C9007D30C800C80B772EC90B772E0800C5
:100CF80083120313CB00CA014B1C862E4808C90077
:100D08004908CA070310C80D0310CB0C4B08031D74
:100D1800802E4A0808007E088A007F0882008F26F5
:100D28000A128A118000840A04087D060319003417
:100D3800FF0A0319FE0A932E243083160313980022
:100D48009830831203139800143083160313990004
:100D58000B178B17080006308A000408840A8207DC
:100D6800003458343A34003459343A340034831255
:100D78000313CB00CB174B080A128A11552608001B
:100D880064008001840A0406031900340406C52E91
:080D980001340334143401346A
:02400E003A3F37
:00000001FF
